{
	"Lab1_Solidity.sol": {
		"ParentContract": {
			"abi": [
				{
					"inputs": [],
					"name": "getParentState",
					"outputs": [
						{
							"internalType": "int256",
							"name": "",
							"type": "int256"
						},
						{
							"internalType": "string",
							"name": "",
							"type": "string"
						}
					],
					"stateMutability": "view",
					"type": "function"
				},
				{
					"inputs": [],
					"name": "publicNum",
					"outputs": [
						{
							"internalType": "uint256",
							"name": "",
							"type": "uint256"
						}
					],
					"stateMutability": "view",
					"type": "function"
				}
			],
			"devdoc": {
				"kind": "dev",
				"methods": {},
				"version": 1
			},
			"evm": {
				"assembly": "    /* \"Lab1_Solidity.sol\":162:806  contract ParentContract {\r... */\n  mstore(0x40, 0x80)\n    /* \"Lab1_Solidity.sol\":288:307  string name = \"bob\" */\n  mload(0x40)\n  dup1\n  0x40\n  add\n  0x40\n  mstore\n  dup1\n  0x03\n  dup2\n  mstore\n  0x20\n  add\n  0x626f620000000000000000000000000000000000000000000000000000000000\n  dup2\n  mstore\n  pop\n  0x00\n  swap1\n  dup1\n  mload\n  swap1\n  0x20\n  add\n  swap1\n  tag_1\n  swap3\n  swap2\n  swap1\n  tag_2\n  jump\t// in\ntag_1:\n  pop\n    /* \"Lab1_Solidity.sol\":325:327  20 */\n  0x14\n    /* \"Lab1_Solidity.sol\":315:327  int age = 20 */\n  0x01\n  sstore\n    /* \"Lab1_Solidity.sol\":674:677  100 */\n  0x64\n    /* \"Lab1_Solidity.sol\":648:677  uint private privateNum = 100 */\n  0x02\n  sstore\n    /* \"Lab1_Solidity.sol\":799:802  200 */\n  0xc8\n    /* \"Lab1_Solidity.sol\":775:802  uint public publicNum = 200 */\n  0x03\n  sstore\n    /* \"Lab1_Solidity.sol\":162:806  contract ParentContract {\r... */\n  callvalue\n  dup1\n  iszero\n  tag_3\n  jumpi\n  0x00\n  dup1\n  revert\ntag_3:\n  pop\n  jump(tag_4)\ntag_2:\n  dup3\n  dup1\n  sload\n  tag_5\n  swap1\n  tag_6\n  jump\t// in\ntag_5:\n  swap1\n  0x00\n  mstore\n  keccak256(0x00, 0x20)\n  swap1\n  0x1f\n  add\n  0x20\n  swap1\n  div\n  dup2\n  add\n  swap3\n  dup3\n  tag_8\n  jumpi\n  0x00\n  dup6\n  sstore\n  jump(tag_7)\ntag_8:\n  dup3\n  0x1f\n  lt\n  tag_9\n  jumpi\n  dup1\n  mload\n  not(0xff)\n  and\n  dup4\n  dup1\n  add\n  or\n  dup6\n  sstore\n  jump(tag_7)\ntag_9:\n  dup3\n  dup1\n  add\n  0x01\n  add\n  dup6\n  sstore\n  dup3\n  iszero\n  tag_7\n  jumpi\n  swap2\n  dup3\n  add\ntag_10:\n  dup3\n  dup2\n  gt\n  iszero\n  tag_11\n  jumpi\n  dup3\n  mload\n  dup3\n  sstore\n  swap2\n  0x20\n  add\n  swap2\n  swap1\n  0x01\n  add\n  swap1\n  jump(tag_10)\ntag_11:\ntag_7:\n  pop\n  swap1\n  pop\n  tag_12\n  swap2\n  swap1\n  tag_13\n  jump\t// in\ntag_12:\n  pop\n  swap1\n  jump\t// out\ntag_13:\ntag_14:\n  dup1\n  dup3\n  gt\n  iszero\n  tag_15\n  jumpi\n  0x00\n  dup2\n  0x00\n  swap1\n  sstore\n  pop\n  0x01\n  add\n  jump(tag_14)\ntag_15:\n  pop\n  swap1\n  jump\t// out\n    /* \"#utility.yul\":7:327   */\ntag_6:\n  0x00\n    /* \"#utility.yul\":88:89   */\n  0x02\n    /* \"#utility.yul\":82:86   */\n  dup3\n    /* \"#utility.yul\":78:90   */\n  div\n    /* \"#utility.yul\":68:90   */\n  swap1\n  pop\n    /* \"#utility.yul\":135:136   */\n  0x01\n    /* \"#utility.yul\":129:133   */\n  dup3\n    /* \"#utility.yul\":125:137   */\n  and\n    /* \"#utility.yul\":156:174   */\n  dup1\n    /* \"#utility.yul\":146:148   */\n  tag_18\n  jumpi\n    /* \"#utility.yul\":212:216   */\n  0x7f\n    /* \"#utility.yul\":204:210   */\n  dup3\n    /* \"#utility.yul\":200:217   */\n  and\n    /* \"#utility.yul\":190:217   */\n  swap2\n  pop\n    /* \"#utility.yul\":146:148   */\ntag_18:\n    /* \"#utility.yul\":274:276   */\n  0x20\n    /* \"#utility.yul\":266:272   */\n  dup3\n    /* \"#utility.yul\":263:277   */\n  lt\n    /* \"#utility.yul\":243:261   */\n  dup2\n    /* \"#utility.yul\":240:278   */\n  eq\n    /* \"#utility.yul\":237:239   */\n  iszero\n  tag_19\n  jumpi\n    /* \"#utility.yul\":293:311   */\n  tag_20\n  tag_21\n  jump\t// in\ntag_20:\n    /* \"#utility.yul\":237:239   */\ntag_19:\n    /* \"#utility.yul\":58:327   */\n  pop\n  swap2\n  swap1\n  pop\n  jump\t// out\n    /* \"#utility.yul\":333:513   */\ntag_21:\n    /* \"#utility.yul\":381:458   */\n  0x4e487b7100000000000000000000000000000000000000000000000000000000\n    /* \"#utility.yul\":378:379   */\n  0x00\n    /* \"#utility.yul\":371:459   */\n  mstore\n    /* \"#utility.yul\":478:482   */\n  0x22\n    /* \"#utility.yul\":475:476   */\n  0x04\n    /* \"#utility.yul\":468:483   */\n  mstore\n    /* \"#utility.yul\":502:506   */\n  0x24\n    /* \"#utility.yul\":499:500   */\n  0x00\n    /* \"#utility.yul\":492:507   */\n  revert\n    /* \"Lab1_Solidity.sol\":162:806  contract ParentContract {\r... */\ntag_4:\n  dataSize(sub_0)\n  dup1\n  dataOffset(sub_0)\n  0x00\n  codecopy\n  0x00\n  return\nstop\n\nsub_0: assembly {\n        /* \"Lab1_Solidity.sol\":162:806  contract ParentContract {\r... */\n      mstore(0x40, 0x80)\n      callvalue\n      dup1\n      iszero\n      tag_1\n      jumpi\n      0x00\n      dup1\n      revert\n    tag_1:\n      pop\n      jumpi(tag_2, lt(calldatasize, 0x04))\n      shr(0xe0, calldataload(0x00))\n      dup1\n      0x85d618db\n      eq\n      tag_3\n      jumpi\n      dup1\n      0xa60062ad\n      eq\n      tag_4\n      jumpi\n    tag_2:\n      0x00\n      dup1\n      revert\n        /* \"Lab1_Solidity.sol\":446:550  function getParentState() public view returns (int, string memory) {\r... */\n    tag_3:\n      tag_5\n      tag_6\n      jump\t// in\n    tag_5:\n      mload(0x40)\n      tag_7\n      swap3\n      swap2\n      swap1\n      tag_8\n      jump\t// in\n    tag_7:\n      mload(0x40)\n      dup1\n      swap2\n      sub\n      swap1\n      return\n        /* \"Lab1_Solidity.sol\":775:802  uint public publicNum = 200 */\n    tag_4:\n      tag_9\n      tag_10\n      jump\t// in\n    tag_9:\n      mload(0x40)\n      tag_11\n      swap2\n      swap1\n      tag_12\n      jump\t// in\n    tag_11:\n      mload(0x40)\n      dup1\n      swap2\n      sub\n      swap1\n      return\n        /* \"Lab1_Solidity.sol\":446:550  function getParentState() public view returns (int, string memory) {\r... */\n    tag_6:\n        /* \"Lab1_Solidity.sol\":493:496  int */\n      0x00\n        /* \"Lab1_Solidity.sol\":498:511  string memory */\n      0x60\n        /* \"Lab1_Solidity.sol\":532:535  age */\n      sload(0x01)\n        /* \"Lab1_Solidity.sol\":537:541  name */\n      0x00\n        /* \"Lab1_Solidity.sol\":524:542  return (age, name) */\n      dup1\n      dup1\n      sload\n      tag_14\n      swap1\n      tag_15\n      jump\t// in\n    tag_14:\n      dup1\n      0x1f\n      add\n      0x20\n      dup1\n      swap2\n      div\n      mul\n      0x20\n      add\n      mload(0x40)\n      swap1\n      dup2\n      add\n      0x40\n      mstore\n      dup1\n      swap3\n      swap2\n      swap1\n      dup2\n      dup2\n      mstore\n      0x20\n      add\n      dup3\n      dup1\n      sload\n      tag_16\n      swap1\n      tag_15\n      jump\t// in\n    tag_16:\n      dup1\n      iszero\n      tag_17\n      jumpi\n      dup1\n      0x1f\n      lt\n      tag_18\n      jumpi\n      0x0100\n      dup1\n      dup4\n      sload\n      div\n      mul\n      dup4\n      mstore\n      swap2\n      0x20\n      add\n      swap2\n      jump(tag_17)\n    tag_18:\n      dup3\n      add\n      swap2\n      swap1\n      0x00\n      mstore\n      keccak256(0x00, 0x20)\n      swap1\n    tag_19:\n      dup2\n      sload\n      dup2\n      mstore\n      swap1\n      0x01\n      add\n      swap1\n      0x20\n      add\n      dup1\n      dup4\n      gt\n      tag_19\n      jumpi\n      dup3\n      swap1\n      sub\n      0x1f\n      and\n      dup3\n      add\n      swap2\n    tag_17:\n      pop\n      pop\n      pop\n      pop\n      pop\n      swap1\n      pop\n      swap2\n      pop\n      swap2\n      pop\n        /* \"Lab1_Solidity.sol\":446:550  function getParentState() public view returns (int, string memory) {\r... */\n      swap1\n      swap2\n      jump\t// out\n        /* \"Lab1_Solidity.sol\":775:802  uint public publicNum = 200 */\n    tag_10:\n      sload(0x03)\n      dup2\n      jump\t// out\n        /* \"#utility.yul\":7:122   */\n    tag_21:\n        /* \"#utility.yul\":92:115   */\n      tag_23\n        /* \"#utility.yul\":109:114   */\n      dup2\n        /* \"#utility.yul\":92:115   */\n      tag_24\n      jump\t// in\n    tag_23:\n        /* \"#utility.yul\":87:90   */\n      dup3\n        /* \"#utility.yul\":80:116   */\n      mstore\n        /* \"#utility.yul\":70:122   */\n      pop\n      pop\n      jump\t// out\n        /* \"#utility.yul\":128:492   */\n    tag_25:\n      0x00\n        /* \"#utility.yul\":244:283   */\n      tag_27\n        /* \"#utility.yul\":277:282   */\n      dup3\n        /* \"#utility.yul\":244:283   */\n      tag_28\n      jump\t// in\n    tag_27:\n        /* \"#utility.yul\":299:370   */\n      tag_29\n        /* \"#utility.yul\":363:369   */\n      dup2\n        /* \"#utility.yul\":358:361   */\n      dup6\n        /* \"#utility.yul\":299:370   */\n      tag_30\n      jump\t// in\n    tag_29:\n        /* \"#utility.yul\":292:370   */\n      swap4\n      pop\n        /* \"#utility.yul\":379:431   */\n      tag_31\n        /* \"#utility.yul\":424:430   */\n      dup2\n        /* \"#utility.yul\":419:422   */\n      dup6\n        /* \"#utility.yul\":412:416   */\n      0x20\n        /* \"#utility.yul\":405:410   */\n      dup7\n        /* \"#utility.yul\":401:417   */\n      add\n        /* \"#utility.yul\":379:431   */\n      tag_32\n      jump\t// in\n    tag_31:\n        /* \"#utility.yul\":456:485   */\n      tag_33\n        /* \"#utility.yul\":478:484   */\n      dup2\n        /* \"#utility.yul\":456:485   */\n      tag_34\n      jump\t// in\n    tag_33:\n        /* \"#utility.yul\":451:454   */\n      dup5\n        /* \"#utility.yul\":447:486   */\n      add\n        /* \"#utility.yul\":440:486   */\n      swap2\n      pop\n        /* \"#utility.yul\":220:492   */\n      pop\n      swap3\n      swap2\n      pop\n      pop\n      jump\t// out\n        /* \"#utility.yul\":498:616   */\n    tag_35:\n        /* \"#utility.yul\":585:609   */\n      tag_37\n        /* \"#utility.yul\":603:608   */\n      dup2\n        /* \"#utility.yul\":585:609   */\n      tag_38\n      jump\t// in\n    tag_37:\n        /* \"#utility.yul\":580:583   */\n      dup3\n        /* \"#utility.yul\":573:610   */\n      mstore\n        /* \"#utility.yul\":563:616   */\n      pop\n      pop\n      jump\t// out\n        /* \"#utility.yul\":622:1041   */\n    tag_8:\n      0x00\n        /* \"#utility.yul\":799:801   */\n      0x40\n        /* \"#utility.yul\":788:797   */\n      dup3\n        /* \"#utility.yul\":784:802   */\n      add\n        /* \"#utility.yul\":776:802   */\n      swap1\n      pop\n        /* \"#utility.yul\":812:881   */\n      tag_40\n        /* \"#utility.yul\":878:879   */\n      0x00\n        /* \"#utility.yul\":867:876   */\n      dup4\n        /* \"#utility.yul\":863:880   */\n      add\n        /* \"#utility.yul\":854:860   */\n      dup6\n        /* \"#utility.yul\":812:881   */\n      tag_21\n      jump\t// in\n    tag_40:\n        /* \"#utility.yul\":928:937   */\n      dup2\n        /* \"#utility.yul\":922:926   */\n      dup2\n        /* \"#utility.yul\":918:938   */\n      sub\n        /* \"#utility.yul\":913:915   */\n      0x20\n        /* \"#utility.yul\":902:911   */\n      dup4\n        /* \"#utility.yul\":898:916   */\n      add\n        /* \"#utility.yul\":891:939   */\n      mstore\n        /* \"#utility.yul\":956:1034   */\n      tag_41\n        /* \"#utility.yul\":1029:1033   */\n      dup2\n        /* \"#utility.yul\":1020:1026   */\n      dup5\n        /* \"#utility.yul\":956:1034   */\n      tag_25\n      jump\t// in\n    tag_41:\n        /* \"#utility.yul\":948:1034   */\n      swap1\n      pop\n        /* \"#utility.yul\":766:1041   */\n      swap4\n      swap3\n      pop\n      pop\n      pop\n      jump\t// out\n        /* \"#utility.yul\":1047:1269   */\n    tag_12:\n      0x00\n        /* \"#utility.yul\":1178:1180   */\n      0x20\n        /* \"#utility.yul\":1167:1176   */\n      dup3\n        /* \"#utility.yul\":1163:1181   */\n      add\n        /* \"#utility.yul\":1155:1181   */\n      swap1\n      pop\n        /* \"#utility.yul\":1191:1262   */\n      tag_43\n        /* \"#utility.yul\":1259:1260   */\n      0x00\n        /* \"#utility.yul\":1248:1257   */\n      dup4\n        /* \"#utility.yul\":1244:1261   */\n      add\n        /* \"#utility.yul\":1235:1241   */\n      dup5\n        /* \"#utility.yul\":1191:1262   */\n      tag_35\n      jump\t// in\n    tag_43:\n        /* \"#utility.yul\":1145:1269   */\n      swap3\n      swap2\n      pop\n      pop\n      jump\t// out\n        /* \"#utility.yul\":1275:1374   */\n    tag_28:\n      0x00\n        /* \"#utility.yul\":1361:1366   */\n      dup2\n        /* \"#utility.yul\":1355:1367   */\n      mload\n        /* \"#utility.yul\":1345:1367   */\n      swap1\n      pop\n        /* \"#utility.yul\":1334:1374   */\n      swap2\n      swap1\n      pop\n      jump\t// out\n        /* \"#utility.yul\":1380:1549   */\n    tag_30:\n      0x00\n        /* \"#utility.yul\":1498:1504   */\n      dup3\n        /* \"#utility.yul\":1493:1496   */\n      dup3\n        /* \"#utility.yul\":1486:1505   */\n      mstore\n        /* \"#utility.yul\":1538:1542   */\n      0x20\n        /* \"#utility.yul\":1533:1536   */\n      dup3\n        /* \"#utility.yul\":1529:1543   */\n      add\n        /* \"#utility.yul\":1514:1543   */\n      swap1\n      pop\n        /* \"#utility.yul\":1476:1549   */\n      swap3\n      swap2\n      pop\n      pop\n      jump\t// out\n        /* \"#utility.yul\":1555:1631   */\n    tag_24:\n      0x00\n        /* \"#utility.yul\":1620:1625   */\n      dup2\n        /* \"#utility.yul\":1609:1625   */\n      swap1\n      pop\n        /* \"#utility.yul\":1599:1631   */\n      swap2\n      swap1\n      pop\n      jump\t// out\n        /* \"#utility.yul\":1637:1714   */\n    tag_38:\n      0x00\n        /* \"#utility.yul\":1703:1708   */\n      dup2\n        /* \"#utility.yul\":1692:1708   */\n      swap1\n      pop\n        /* \"#utility.yul\":1682:1714   */\n      swap2\n      swap1\n      pop\n      jump\t// out\n        /* \"#utility.yul\":1720:2027   */\n    tag_32:\n        /* \"#utility.yul\":1788:1789   */\n      0x00\n        /* \"#utility.yul\":1798:1911   */\n    tag_49:\n        /* \"#utility.yul\":1812:1818   */\n      dup4\n        /* \"#utility.yul\":1809:1810   */\n      dup2\n        /* \"#utility.yul\":1806:1819   */\n      lt\n        /* \"#utility.yul\":1798:1911   */\n      iszero\n      tag_51\n      jumpi\n        /* \"#utility.yul\":1897:1898   */\n      dup1\n        /* \"#utility.yul\":1892:1895   */\n      dup3\n        /* \"#utility.yul\":1888:1899   */\n      add\n        /* \"#utility.yul\":1882:1900   */\n      mload\n        /* \"#utility.yul\":1878:1879   */\n      dup2\n        /* \"#utility.yul\":1873:1876   */\n      dup5\n        /* \"#utility.yul\":1869:1880   */\n      add\n        /* \"#utility.yul\":1862:1901   */\n      mstore\n        /* \"#utility.yul\":1834:1836   */\n      0x20\n        /* \"#utility.yul\":1831:1832   */\n      dup2\n        /* \"#utility.yul\":1827:1837   */\n      add\n        /* \"#utility.yul\":1822:1837   */\n      swap1\n      pop\n        /* \"#utility.yul\":1798:1911   */\n      jump(tag_49)\n    tag_51:\n        /* \"#utility.yul\":1929:1935   */\n      dup4\n        /* \"#utility.yul\":1926:1927   */\n      dup2\n        /* \"#utility.yul\":1923:1936   */\n      gt\n        /* \"#utility.yul\":1920:1922   */\n      iszero\n      tag_52\n      jumpi\n        /* \"#utility.yul\":2009:2010   */\n      0x00\n        /* \"#utility.yul\":2000:2006   */\n      dup5\n        /* \"#utility.yul\":1995:1998   */\n      dup5\n        /* \"#utility.yul\":1991:2007   */\n      add\n        /* \"#utility.yul\":1984:2011   */\n      mstore\n        /* \"#utility.yul\":1920:1922   */\n    tag_52:\n        /* \"#utility.yul\":1769:2027   */\n      pop\n      pop\n      pop\n      pop\n      jump\t// out\n        /* \"#utility.yul\":2033:2353   */\n    tag_15:\n      0x00\n        /* \"#utility.yul\":2114:2115   */\n      0x02\n        /* \"#utility.yul\":2108:2112   */\n      dup3\n        /* \"#utility.yul\":2104:2116   */\n      div\n        /* \"#utility.yul\":2094:2116   */\n      swap1\n      pop\n        /* \"#utility.yul\":2161:2162   */\n      0x01\n        /* \"#utility.yul\":2155:2159   */\n      dup3\n        /* \"#utility.yul\":2151:2163   */\n      and\n        /* \"#utility.yul\":2182:2200   */\n      dup1\n        /* \"#utility.yul\":2172:2174   */\n      tag_54\n      jumpi\n        /* \"#utility.yul\":2238:2242   */\n      0x7f\n        /* \"#utility.yul\":2230:2236   */\n      dup3\n        /* \"#utility.yul\":2226:2243   */\n      and\n        /* \"#utility.yul\":2216:2243   */\n      swap2\n      pop\n        /* \"#utility.yul\":2172:2174   */\n    tag_54:\n        /* \"#utility.yul\":2300:2302   */\n      0x20\n        /* \"#utility.yul\":2292:2298   */\n      dup3\n        /* \"#utility.yul\":2289:2303   */\n      lt\n        /* \"#utility.yul\":2269:2287   */\n      dup2\n        /* \"#utility.yul\":2266:2304   */\n      eq\n        /* \"#utility.yul\":2263:2265   */\n      iszero\n      tag_55\n      jumpi\n        /* \"#utility.yul\":2319:2337   */\n      tag_56\n      tag_57\n      jump\t// in\n    tag_56:\n        /* \"#utility.yul\":2263:2265   */\n    tag_55:\n        /* \"#utility.yul\":2084:2353   */\n      pop\n      swap2\n      swap1\n      pop\n      jump\t// out\n        /* \"#utility.yul\":2359:2539   */\n    tag_57:\n        /* \"#utility.yul\":2407:2484   */\n      0x4e487b7100000000000000000000000000000000000000000000000000000000\n        /* \"#utility.yul\":2404:2405   */\n      0x00\n        /* \"#utility.yul\":2397:2485   */\n      mstore\n        /* \"#utility.yul\":2504:2508   */\n      0x22\n        /* \"#utility.yul\":2501:2502   */\n      0x04\n        /* \"#utility.yul\":2494:2509   */\n      mstore\n        /* \"#utility.yul\":2528:2532   */\n      0x24\n        /* \"#utility.yul\":2525:2526   */\n      0x00\n        /* \"#utility.yul\":2518:2533   */\n      revert\n        /* \"#utility.yul\":2545:2647   */\n    tag_34:\n      0x00\n        /* \"#utility.yul\":2637:2639   */\n      0x1f\n        /* \"#utility.yul\":2633:2640   */\n      not\n        /* \"#utility.yul\":2628:2630   */\n      0x1f\n        /* \"#utility.yul\":2621:2626   */\n      dup4\n        /* \"#utility.yul\":2617:2631   */\n      add\n        /* \"#utility.yul\":2613:2641   */\n      and\n        /* \"#utility.yul\":2603:2641   */\n      swap1\n      pop\n        /* \"#utility.yul\":2593:2647   */\n      swap2\n      swap1\n      pop\n      jump\t// out\n\n    auxdata: 0xa26469706673582212205a00b888cd5727014243a1b05387fe282605d441bd06c9e57253f357d3bd84fb64736f6c63430008000033\n}\n",
				"bytecode": {
					"linkReferences": {},
					"object": "60806040526040518060400160405280600381526020017f626f6200000000000000000000000000000000000000000000000000000000008152506000908051906020019061004f929190610071565b506014600155606460025560c860035534801561006b57600080fd5b50610175565b82805461007d90610114565b90600052602060002090601f01602090048101928261009f57600085556100e6565b82601f106100b857805160ff19168380011785556100e6565b828001600101855582156100e6579182015b828111156100e55782518255916020019190600101906100ca565b5b5090506100f391906100f7565b5090565b5b808211156101105760008160009055506001016100f8565b5090565b6000600282049050600182168061012c57607f821691505b602082108114156101405761013f610146565b5b50919050565b7f4e487b7100000000000000000000000000000000000000000000000000000000600052602260045260246000fd5b6102c8806101846000396000f3fe608060405234801561001057600080fd5b50600436106100365760003560e01c806385d618db1461003b578063a60062ad1461005a575b600080fd5b610043610078565b604051610051929190610172565b60405180910390f35b610062610115565b60405161006f91906101a2565b60405180910390f35b60006060600154600080805461008d90610220565b80601f01602080910402602001604051908101604052809291908181526020018280546100b990610220565b80156101065780601f106100db57610100808354040283529160200191610106565b820191906000526020600020905b8154815290600101906020018083116100e957829003601f168201915b50505050509050915091509091565b60035481565b610124816101d9565b82525050565b6000610135826101bd565b61013f81856101c8565b935061014f8185602086016101ed565b61015881610281565b840191505092915050565b61016c816101e3565b82525050565b6000604082019050610187600083018561011b565b8181036020830152610199818461012a565b90509392505050565b60006020820190506101b76000830184610163565b92915050565b600081519050919050565b600082825260208201905092915050565b6000819050919050565b6000819050919050565b60005b8381101561020b5780820151818401526020810190506101f0565b8381111561021a576000848401525b50505050565b6000600282049050600182168061023857607f821691505b6020821081141561024c5761024b610252565b5b50919050565b7f4e487b7100000000000000000000000000000000000000000000000000000000600052602260045260246000fd5b6000601f19601f830116905091905056fea26469706673582212205a00b888cd5727014243a1b05387fe282605d441bd06c9e57253f357d3bd84fb64736f6c63430008000033",
					"opcodes": "PUSH1 0x80 PUSH1 0x40 MSTORE PUSH1 0x40 MLOAD DUP1 PUSH1 0x40 ADD PUSH1 0x40 MSTORE DUP1 PUSH1 0x3 DUP2 MSTORE PUSH1 0x20 ADD PUSH32 0x626F620000000000000000000000000000000000000000000000000000000000 DUP2 MSTORE POP PUSH1 0x0 SWAP1 DUP1 MLOAD SWAP1 PUSH1 0x20 ADD SWAP1 PUSH2 0x4F SWAP3 SWAP2 SWAP1 PUSH2 0x71 JUMP JUMPDEST POP PUSH1 0x14 PUSH1 0x1 SSTORE PUSH1 0x64 PUSH1 0x2 SSTORE PUSH1 0xC8 PUSH1 0x3 SSTORE CALLVALUE DUP1 ISZERO PUSH2 0x6B JUMPI PUSH1 0x0 DUP1 REVERT JUMPDEST POP PUSH2 0x175 JUMP JUMPDEST DUP3 DUP1 SLOAD PUSH2 0x7D SWAP1 PUSH2 0x114 JUMP JUMPDEST SWAP1 PUSH1 0x0 MSTORE PUSH1 0x20 PUSH1 0x0 KECCAK256 SWAP1 PUSH1 0x1F ADD PUSH1 0x20 SWAP1 DIV DUP2 ADD SWAP3 DUP3 PUSH2 0x9F JUMPI PUSH1 0x0 DUP6 SSTORE PUSH2 0xE6 JUMP JUMPDEST DUP3 PUSH1 0x1F LT PUSH2 0xB8 JUMPI DUP1 MLOAD PUSH1 0xFF NOT AND DUP4 DUP1 ADD OR DUP6 SSTORE PUSH2 0xE6 JUMP JUMPDEST DUP3 DUP1 ADD PUSH1 0x1 ADD DUP6 SSTORE DUP3 ISZERO PUSH2 0xE6 JUMPI SWAP2 DUP3 ADD JUMPDEST DUP3 DUP2 GT ISZERO PUSH2 0xE5 JUMPI DUP3 MLOAD DUP3 SSTORE SWAP2 PUSH1 0x20 ADD SWAP2 SWAP1 PUSH1 0x1 ADD SWAP1 PUSH2 0xCA JUMP JUMPDEST JUMPDEST POP SWAP1 POP PUSH2 0xF3 SWAP2 SWAP1 PUSH2 0xF7 JUMP JUMPDEST POP SWAP1 JUMP JUMPDEST JUMPDEST DUP1 DUP3 GT ISZERO PUSH2 0x110 JUMPI PUSH1 0x0 DUP2 PUSH1 0x0 SWAP1 SSTORE POP PUSH1 0x1 ADD PUSH2 0xF8 JUMP JUMPDEST POP SWAP1 JUMP JUMPDEST PUSH1 0x0 PUSH1 0x2 DUP3 DIV SWAP1 POP PUSH1 0x1 DUP3 AND DUP1 PUSH2 0x12C JUMPI PUSH1 0x7F DUP3 AND SWAP2 POP JUMPDEST PUSH1 0x20 DUP3 LT DUP2 EQ ISZERO PUSH2 0x140 JUMPI PUSH2 0x13F PUSH2 0x146 JUMP JUMPDEST JUMPDEST POP SWAP2 SWAP1 POP JUMP JUMPDEST PUSH32 0x4E487B7100000000000000000000000000000000000000000000000000000000 PUSH1 0x0 MSTORE PUSH1 0x22 PUSH1 0x4 MSTORE PUSH1 0x24 PUSH1 0x0 REVERT JUMPDEST PUSH2 0x2C8 DUP1 PUSH2 0x184 PUSH1 0x0 CODECOPY PUSH1 0x0 RETURN INVALID PUSH1 0x80 PUSH1 0x40 MSTORE CALLVALUE DUP1 ISZERO PUSH2 0x10 JUMPI PUSH1 0x0 DUP1 REVERT JUMPDEST POP PUSH1 0x4 CALLDATASIZE LT PUSH2 0x36 JUMPI PUSH1 0x0 CALLDATALOAD PUSH1 0xE0 SHR DUP1 PUSH4 0x85D618DB EQ PUSH2 0x3B JUMPI DUP1 PUSH4 0xA60062AD EQ PUSH2 0x5A JUMPI JUMPDEST PUSH1 0x0 DUP1 REVERT JUMPDEST PUSH2 0x43 PUSH2 0x78 JUMP JUMPDEST PUSH1 0x40 MLOAD PUSH2 0x51 SWAP3 SWAP2 SWAP1 PUSH2 0x172 JUMP JUMPDEST PUSH1 0x40 MLOAD DUP1 SWAP2 SUB SWAP1 RETURN JUMPDEST PUSH2 0x62 PUSH2 0x115 JUMP JUMPDEST PUSH1 0x40 MLOAD PUSH2 0x6F SWAP2 SWAP1 PUSH2 0x1A2 JUMP JUMPDEST PUSH1 0x40 MLOAD DUP1 SWAP2 SUB SWAP1 RETURN JUMPDEST PUSH1 0x0 PUSH1 0x60 PUSH1 0x1 SLOAD PUSH1 0x0 DUP1 DUP1 SLOAD PUSH2 0x8D SWAP1 PUSH2 0x220 JUMP JUMPDEST DUP1 PUSH1 0x1F ADD PUSH1 0x20 DUP1 SWAP2 DIV MUL PUSH1 0x20 ADD PUSH1 0x40 MLOAD SWAP1 DUP2 ADD PUSH1 0x40 MSTORE DUP1 SWAP3 SWAP2 SWAP1 DUP2 DUP2 MSTORE PUSH1 0x20 ADD DUP3 DUP1 SLOAD PUSH2 0xB9 SWAP1 PUSH2 0x220 JUMP JUMPDEST DUP1 ISZERO PUSH2 0x106 JUMPI DUP1 PUSH1 0x1F LT PUSH2 0xDB JUMPI PUSH2 0x100 DUP1 DUP4 SLOAD DIV MUL DUP4 MSTORE SWAP2 PUSH1 0x20 ADD SWAP2 PUSH2 0x106 JUMP JUMPDEST DUP3 ADD SWAP2 SWAP1 PUSH1 0x0 MSTORE PUSH1 0x20 PUSH1 0x0 KECCAK256 SWAP1 JUMPDEST DUP2 SLOAD DUP2 MSTORE SWAP1 PUSH1 0x1 ADD SWAP1 PUSH1 0x20 ADD DUP1 DUP4 GT PUSH2 0xE9 JUMPI DUP3 SWAP1 SUB PUSH1 0x1F AND DUP3 ADD SWAP2 JUMPDEST POP POP POP POP POP SWAP1 POP SWAP2 POP SWAP2 POP SWAP1 SWAP2 JUMP JUMPDEST PUSH1 0x3 SLOAD DUP2 JUMP JUMPDEST PUSH2 0x124 DUP2 PUSH2 0x1D9 JUMP JUMPDEST DUP3 MSTORE POP POP JUMP JUMPDEST PUSH1 0x0 PUSH2 0x135 DUP3 PUSH2 0x1BD JUMP JUMPDEST PUSH2 0x13F DUP2 DUP6 PUSH2 0x1C8 JUMP JUMPDEST SWAP4 POP PUSH2 0x14F DUP2 DUP6 PUSH1 0x20 DUP7 ADD PUSH2 0x1ED JUMP JUMPDEST PUSH2 0x158 DUP2 PUSH2 0x281 JUMP JUMPDEST DUP5 ADD SWAP2 POP POP SWAP3 SWAP2 POP POP JUMP JUMPDEST PUSH2 0x16C DUP2 PUSH2 0x1E3 JUMP JUMPDEST DUP3 MSTORE POP POP JUMP JUMPDEST PUSH1 0x0 PUSH1 0x40 DUP3 ADD SWAP1 POP PUSH2 0x187 PUSH1 0x0 DUP4 ADD DUP6 PUSH2 0x11B JUMP JUMPDEST DUP2 DUP2 SUB PUSH1 0x20 DUP4 ADD MSTORE PUSH2 0x199 DUP2 DUP5 PUSH2 0x12A JUMP JUMPDEST SWAP1 POP SWAP4 SWAP3 POP POP POP JUMP JUMPDEST PUSH1 0x0 PUSH1 0x20 DUP3 ADD SWAP1 POP PUSH2 0x1B7 PUSH1 0x0 DUP4 ADD DUP5 PUSH2 0x163 JUMP JUMPDEST SWAP3 SWAP2 POP POP JUMP JUMPDEST PUSH1 0x0 DUP2 MLOAD SWAP1 POP SWAP2 SWAP1 POP JUMP JUMPDEST PUSH1 0x0 DUP3 DUP3 MSTORE PUSH1 0x20 DUP3 ADD SWAP1 POP SWAP3 SWAP2 POP POP JUMP JUMPDEST PUSH1 0x0 DUP2 SWAP1 POP SWAP2 SWAP1 POP JUMP JUMPDEST PUSH1 0x0 DUP2 SWAP1 POP SWAP2 SWAP1 POP JUMP JUMPDEST PUSH1 0x0 JUMPDEST DUP4 DUP2 LT ISZERO PUSH2 0x20B JUMPI DUP1 DUP3 ADD MLOAD DUP2 DUP5 ADD MSTORE PUSH1 0x20 DUP2 ADD SWAP1 POP PUSH2 0x1F0 JUMP JUMPDEST DUP4 DUP2 GT ISZERO PUSH2 0x21A JUMPI PUSH1 0x0 DUP5 DUP5 ADD MSTORE JUMPDEST POP POP POP POP JUMP JUMPDEST PUSH1 0x0 PUSH1 0x2 DUP3 DIV SWAP1 POP PUSH1 0x1 DUP3 AND DUP1 PUSH2 0x238 JUMPI PUSH1 0x7F DUP3 AND SWAP2 POP JUMPDEST PUSH1 0x20 DUP3 LT DUP2 EQ ISZERO PUSH2 0x24C JUMPI PUSH2 0x24B PUSH2 0x252 JUMP JUMPDEST JUMPDEST POP SWAP2 SWAP1 POP JUMP JUMPDEST PUSH32 0x4E487B7100000000000000000000000000000000000000000000000000000000 PUSH1 0x0 MSTORE PUSH1 0x22 PUSH1 0x4 MSTORE PUSH1 0x24 PUSH1 0x0 REVERT JUMPDEST PUSH1 0x0 PUSH1 0x1F NOT PUSH1 0x1F DUP4 ADD AND SWAP1 POP SWAP2 SWAP1 POP JUMP INVALID LOG2 PUSH5 0x6970667358 0x22 SLT KECCAK256 GAS STOP 0xB8 DUP9 0xCD JUMPI 0x27 ADD TIMESTAMP NUMBER LOG1 0xB0 MSTORE8 DUP8 INVALID 0x28 0x26 SDIV 0xD4 COINBASE 0xBD MOD 0xC9 0xE5 PUSH19 0x53F357D3BD84FB64736F6C6343000800003300 "
				},
				"gasEstimates": {
					"creation": {
						"codeDepositCost": "142400",
						"executionCost": "infinite",
						"totalCost": "infinite"
					},
					"external": {
						"getParentState()": "infinite",
						"publicNum()": "1129"
					}
				},
				"methodIdentifiers": {
					"getParentState()": "85d618db",
					"publicNum()": "a60062ad"
				}
			},
			"storageLayout": {
				"storage": [
					{
						"astId": 4,
						"contract": "Lab1_Solidity.sol:ParentContract",
						"label": "name",
						"offset": 0,
						"slot": "0",
						"type": "t_string_storage"
					},
					{
						"astId": 7,
						"contract": "Lab1_Solidity.sol:ParentContract",
						"label": "age",
						"offset": 0,
						"slot": "1",
						"type": "t_int256"
					},
					{
						"astId": 22,
						"contract": "Lab1_Solidity.sol:ParentContract",
						"label": "privateNum",
						"offset": 0,
						"slot": "2",
						"type": "t_uint256"
					},
					{
						"astId": 25,
						"contract": "Lab1_Solidity.sol:ParentContract",
						"label": "publicNum",
						"offset": 0,
						"slot": "3",
						"type": "t_uint256"
					}
				],
				"types": {
					"t_int256": {
						"encoding": "inplace",
						"label": "int256",
						"numberOfBytes": "32"
					},
					"t_string_storage": {
						"encoding": "bytes",
						"label": "string",
						"numberOfBytes": "32"
					},
					"t_uint256": {
						"encoding": "inplace",
						"label": "uint256",
						"numberOfBytes": "32"
					}
				}
			},
			"userdoc": {
				"kind": "user",
				"methods": {},
				"version": 1
			}
		}
	}
}