{
	"local-variable.sol": {
		"LocalVariables": {
			"abi": [
				{
					"inputs": [],
					"name": "getResult",
					"outputs": [
						{
							"internalType": "uint256",
							"name": "",
							"type": "uint256"
						}
					],
					"stateMutability": "pure",
					"type": "function"
				},
				{
					"inputs": [],
					"name": "getResultWithGlobal",
					"outputs": [
						{
							"internalType": "uint256",
							"name": "",
							"type": "uint256"
						}
					],
					"stateMutability": "view",
					"type": "function"
				},
				{
					"inputs": [],
					"name": "getResultWithoutPure",
					"outputs": [
						{
							"internalType": "uint256",
							"name": "",
							"type": "uint256"
						}
					],
					"stateMutability": "nonpayable",
					"type": "function"
				},
				{
					"inputs": [],
					"name": "globalNum",
					"outputs": [
						{
							"internalType": "uint256",
							"name": "",
							"type": "uint256"
						}
					],
					"stateMutability": "view",
					"type": "function"
				}
			],
			"devdoc": {
				"kind": "dev",
				"methods": {},
				"version": 1
			},
			"evm": {
				"assembly": "    /* \"local-variable.sol\":60:866  contract LocalVariables {\r... */\n  mstore(0x40, 0x80)\n    /* \"local-variable.sol\":117:119  10 */\n  0x0a\n    /* \"local-variable.sol\":93:119  uint public globalNum = 10 */\n  0x00\n  sstore\n    /* \"local-variable.sol\":60:866  contract LocalVariables {\r... */\n  callvalue\n  dup1\n  iszero\n  tag_1\n  jumpi\n  0x00\n  dup1\n  revert\ntag_1:\n  pop\n  dataSize(sub_0)\n  dup1\n  dataOffset(sub_0)\n  0x00\n  codecopy\n  0x00\n  return\nstop\n\nsub_0: assembly {\n        /* \"local-variable.sol\":60:866  contract LocalVariables {\r... */\n      mstore(0x40, 0x80)\n      callvalue\n      dup1\n      iszero\n      tag_1\n      jumpi\n      0x00\n      dup1\n      revert\n    tag_1:\n      pop\n      jumpi(tag_2, lt(calldatasize, 0x04))\n      shr(0xe0, calldataload(0x00))\n      dup1\n      0x087904e5\n      eq\n      tag_3\n      jumpi\n      dup1\n      0x355d8423\n      eq\n      tag_4\n      jumpi\n      dup1\n      0x9212f533\n      eq\n      tag_5\n      jumpi\n      dup1\n      0xde292789\n      eq\n      tag_6\n      jumpi\n    tag_2:\n      0x00\n      dup1\n      revert\n        /* \"local-variable.sol\":736:863  function getResultWithGlobal() public view returns(uint) {\r... */\n    tag_3:\n      tag_7\n      tag_8\n      jump\t// in\n    tag_7:\n      mload(0x40)\n      tag_9\n      swap2\n      swap1\n      tag_10\n      jump\t// in\n    tag_9:\n      mload(0x40)\n      dup1\n      swap2\n      sub\n      swap1\n      return\n        /* \"local-variable.sol\":570:728  function getResultWithoutPure() public returns(uint) {\r... */\n    tag_4:\n      tag_11\n      tag_12\n      jump\t// in\n    tag_11:\n      mload(0x40)\n      tag_13\n      swap2\n      swap1\n      tag_10\n      jump\t// in\n    tag_13:\n      mload(0x40)\n      dup1\n      swap2\n      sub\n      swap1\n      return\n        /* \"local-variable.sol\":93:119  uint public globalNum = 10 */\n    tag_5:\n      tag_14\n      tag_15\n      jump\t// in\n    tag_14:\n      mload(0x40)\n      tag_16\n      swap2\n      swap1\n      tag_10\n      jump\t// in\n    tag_16:\n      mload(0x40)\n      dup1\n      swap2\n      sub\n      swap1\n      return\n        /* \"local-variable.sol\":128:289  function getResult() public pure returns(uint) {\r... */\n    tag_6:\n      tag_17\n      tag_18\n      jump\t// in\n    tag_17:\n      mload(0x40)\n      tag_19\n      swap2\n      swap1\n      tag_10\n      jump\t// in\n    tag_19:\n      mload(0x40)\n      dup1\n      swap2\n      sub\n      swap1\n      return\n        /* \"local-variable.sol\":736:863  function getResultWithGlobal() public view returns(uint) {\r... */\n    tag_8:\n        /* \"local-variable.sol\":787:791  uint */\n      0x00\n        /* \"local-variable.sol\":804:815  uint result */\n      dup1\n        /* \"local-variable.sol\":830:831  5 */\n      0x05\n        /* \"local-variable.sol\":818:827  globalNum */\n      sload(0x00)\n        /* \"local-variable.sol\":818:831  globalNum + 5 */\n      tag_21\n      swap2\n      swap1\n      tag_22\n      jump\t// in\n    tag_21:\n        /* \"local-variable.sol\":804:831  uint result = globalNum + 5 */\n      swap1\n      pop\n        /* \"local-variable.sol\":849:855  result */\n      dup1\n        /* \"local-variable.sol\":842:855  return result */\n      swap2\n      pop\n      pop\n        /* \"local-variable.sol\":736:863  function getResultWithGlobal() public view returns(uint) {\r... */\n      swap1\n      jump\t// out\n        /* \"local-variable.sol\":570:728  function getResultWithoutPure() public returns(uint) {\r... */\n    tag_12:\n        /* \"local-variable.sol\":617:621  uint */\n      0x00\n        /* \"local-variable.sol\":634:640  uint a */\n      dup1\n        /* \"local-variable.sol\":643:644  1 */\n      0x01\n        /* \"local-variable.sol\":634:644  uint a = 1 */\n      swap1\n      pop\n        /* \"local-variable.sol\":655:661  uint b */\n      0x00\n        /* \"local-variable.sol\":664:665  2 */\n      0x02\n        /* \"local-variable.sol\":655:665  uint b = 2 */\n      swap1\n      pop\n        /* \"local-variable.sol\":676:687  uint result */\n      0x00\n        /* \"local-variable.sol\":694:695  b */\n      dup2\n        /* \"local-variable.sol\":690:691  a */\n      dup4\n        /* \"local-variable.sol\":690:695  a + b */\n      tag_24\n      swap2\n      swap1\n      tag_22\n      jump\t// in\n    tag_24:\n        /* \"local-variable.sol\":676:695  uint result = a + b */\n      swap1\n      pop\n        /* \"local-variable.sol\":713:719  result */\n      dup1\n        /* \"local-variable.sol\":706:719  return result */\n      swap4\n      pop\n      pop\n      pop\n      pop\n        /* \"local-variable.sol\":570:728  function getResultWithoutPure() public returns(uint) {\r... */\n      swap1\n      jump\t// out\n        /* \"local-variable.sol\":93:119  uint public globalNum = 10 */\n    tag_15:\n      sload(0x00)\n      dup2\n      jump\t// out\n        /* \"local-variable.sol\":128:289  function getResult() public pure returns(uint) {\r... */\n    tag_18:\n        /* \"local-variable.sol\":169:173  uint */\n      0x00\n        /* \"local-variable.sol\":196:202  uint a */\n      dup1\n        /* \"local-variable.sol\":205:206  1 */\n      0x01\n        /* \"local-variable.sol\":196:206  uint a = 1 */\n      swap1\n      pop\n        /* \"local-variable.sol\":217:223  uint b */\n      0x00\n        /* \"local-variable.sol\":226:227  2 */\n      0x02\n        /* \"local-variable.sol\":217:227  uint b = 2 */\n      swap1\n      pop\n        /* \"local-variable.sol\":238:249  uint result */\n      0x00\n        /* \"local-variable.sol\":256:257  b */\n      dup2\n        /* \"local-variable.sol\":252:253  a */\n      dup4\n        /* \"local-variable.sol\":252:257  a + b */\n      tag_26\n      swap2\n      swap1\n      tag_22\n      jump\t// in\n    tag_26:\n        /* \"local-variable.sol\":238:257  uint result = a + b */\n      swap1\n      pop\n        /* \"local-variable.sol\":275:281  result */\n      dup1\n        /* \"local-variable.sol\":268:281  return result */\n      swap4\n      pop\n      pop\n      pop\n      pop\n        /* \"local-variable.sol\":128:289  function getResult() public pure returns(uint) {\r... */\n      swap1\n      jump\t// out\n        /* \"#utility.yul\":7:125   */\n    tag_28:\n        /* \"#utility.yul\":94:118   */\n      tag_30\n        /* \"#utility.yul\":112:117   */\n      dup2\n        /* \"#utility.yul\":94:118   */\n      tag_31\n      jump\t// in\n    tag_30:\n        /* \"#utility.yul\":89:92   */\n      dup3\n        /* \"#utility.yul\":82:119   */\n      mstore\n        /* \"#utility.yul\":72:125   */\n      pop\n      pop\n      jump\t// out\n        /* \"#utility.yul\":131:353   */\n    tag_10:\n      0x00\n        /* \"#utility.yul\":262:264   */\n      0x20\n        /* \"#utility.yul\":251:260   */\n      dup3\n        /* \"#utility.yul\":247:265   */\n      add\n        /* \"#utility.yul\":239:265   */\n      swap1\n      pop\n        /* \"#utility.yul\":275:346   */\n      tag_33\n        /* \"#utility.yul\":343:344   */\n      0x00\n        /* \"#utility.yul\":332:341   */\n      dup4\n        /* \"#utility.yul\":328:345   */\n      add\n        /* \"#utility.yul\":319:325   */\n      dup5\n        /* \"#utility.yul\":275:346   */\n      tag_28\n      jump\t// in\n    tag_33:\n        /* \"#utility.yul\":229:353   */\n      swap3\n      swap2\n      pop\n      pop\n      jump\t// out\n        /* \"#utility.yul\":359:664   */\n    tag_22:\n      0x00\n        /* \"#utility.yul\":418:438   */\n      tag_35\n        /* \"#utility.yul\":436:437   */\n      dup3\n        /* \"#utility.yul\":418:438   */\n      tag_31\n      jump\t// in\n    tag_35:\n        /* \"#utility.yul\":413:438   */\n      swap2\n      pop\n        /* \"#utility.yul\":452:472   */\n      tag_36\n        /* \"#utility.yul\":470:471   */\n      dup4\n        /* \"#utility.yul\":452:472   */\n      tag_31\n      jump\t// in\n    tag_36:\n        /* \"#utility.yul\":447:472   */\n      swap3\n      pop\n        /* \"#utility.yul\":606:607   */\n      dup3\n        /* \"#utility.yul\":538:604   */\n      0xffffffffffffffffffffffffffffffffffffffffffffffffffffffffffffffff\n        /* \"#utility.yul\":534:608   */\n      sub\n        /* \"#utility.yul\":531:532   */\n      dup3\n        /* \"#utility.yul\":528:609   */\n      gt\n        /* \"#utility.yul\":525:527   */\n      iszero\n      tag_37\n      jumpi\n        /* \"#utility.yul\":612:630   */\n      tag_38\n      tag_39\n      jump\t// in\n    tag_38:\n        /* \"#utility.yul\":525:527   */\n    tag_37:\n        /* \"#utility.yul\":656:657   */\n      dup3\n        /* \"#utility.yul\":653:654   */\n      dup3\n        /* \"#utility.yul\":649:658   */\n      add\n        /* \"#utility.yul\":642:658   */\n      swap1\n      pop\n        /* \"#utility.yul\":403:664   */\n      swap3\n      swap2\n      pop\n      pop\n      jump\t// out\n        /* \"#utility.yul\":670:747   */\n    tag_31:\n      0x00\n        /* \"#utility.yul\":736:741   */\n      dup2\n        /* \"#utility.yul\":725:741   */\n      swap1\n      pop\n        /* \"#utility.yul\":715:747   */\n      swap2\n      swap1\n      pop\n      jump\t// out\n        /* \"#utility.yul\":753:933   */\n    tag_39:\n        /* \"#utility.yul\":801:878   */\n      0x4e487b7100000000000000000000000000000000000000000000000000000000\n        /* \"#utility.yul\":798:799   */\n      0x00\n        /* \"#utility.yul\":791:879   */\n      mstore\n        /* \"#utility.yul\":898:902   */\n      0x11\n        /* \"#utility.yul\":895:896   */\n      0x04\n        /* \"#utility.yul\":888:903   */\n      mstore\n        /* \"#utility.yul\":922:926   */\n      0x24\n        /* \"#utility.yul\":919:920   */\n      0x00\n        /* \"#utility.yul\":912:927   */\n      revert\n\n    auxdata: 0xa26469706673582212207a75e312d14bcc1939351d01b3baf3aeb670e601d1258ec03f9b2d9b236ff01864736f6c63430008000033\n}\n",
				"bytecode": {
					"linkReferences": {},
					"object": "6080604052600a60005534801561001557600080fd5b50610225806100256000396000f3fe608060405234801561001057600080fd5b506004361061004c5760003560e01c8063087904e514610051578063355d84231461006f5780639212f5331461008d578063de292789146100ab575b600080fd5b6100596100c9565b6040516100669190610145565b60405180910390f35b6100776100e4565b6040516100849190610145565b60405180910390f35b61009561010a565b6040516100a29190610145565b60405180910390f35b6100b3610110565b6040516100c09190610145565b60405180910390f35b60008060056000546100db9190610160565b90508091505090565b60008060019050600060029050600081836100ff9190610160565b905080935050505090565b60005481565b600080600190506000600290506000818361012b9190610160565b905080935050505090565b61013f816101b6565b82525050565b600060208201905061015a6000830184610136565b92915050565b600061016b826101b6565b9150610176836101b6565b9250827fffffffffffffffffffffffffffffffffffffffffffffffffffffffffffffffff038211156101ab576101aa6101c0565b5b828201905092915050565b6000819050919050565b7f4e487b7100000000000000000000000000000000000000000000000000000000600052601160045260246000fdfea26469706673582212207a75e312d14bcc1939351d01b3baf3aeb670e601d1258ec03f9b2d9b236ff01864736f6c63430008000033",
					"opcodes": "PUSH1 0x80 PUSH1 0x40 MSTORE PUSH1 0xA PUSH1 0x0 SSTORE CALLVALUE DUP1 ISZERO PUSH2 0x15 JUMPI PUSH1 0x0 DUP1 REVERT JUMPDEST POP PUSH2 0x225 DUP1 PUSH2 0x25 PUSH1 0x0 CODECOPY PUSH1 0x0 RETURN INVALID PUSH1 0x80 PUSH1 0x40 MSTORE CALLVALUE DUP1 ISZERO PUSH2 0x10 JUMPI PUSH1 0x0 DUP1 REVERT JUMPDEST POP PUSH1 0x4 CALLDATASIZE LT PUSH2 0x4C JUMPI PUSH1 0x0 CALLDATALOAD PUSH1 0xE0 SHR DUP1 PUSH4 0x87904E5 EQ PUSH2 0x51 JUMPI DUP1 PUSH4 0x355D8423 EQ PUSH2 0x6F JUMPI DUP1 PUSH4 0x9212F533 EQ PUSH2 0x8D JUMPI DUP1 PUSH4 0xDE292789 EQ PUSH2 0xAB JUMPI JUMPDEST PUSH1 0x0 DUP1 REVERT JUMPDEST PUSH2 0x59 PUSH2 0xC9 JUMP JUMPDEST PUSH1 0x40 MLOAD PUSH2 0x66 SWAP2 SWAP1 PUSH2 0x145 JUMP JUMPDEST PUSH1 0x40 MLOAD DUP1 SWAP2 SUB SWAP1 RETURN JUMPDEST PUSH2 0x77 PUSH2 0xE4 JUMP JUMPDEST PUSH1 0x40 MLOAD PUSH2 0x84 SWAP2 SWAP1 PUSH2 0x145 JUMP JUMPDEST PUSH1 0x40 MLOAD DUP1 SWAP2 SUB SWAP1 RETURN JUMPDEST PUSH2 0x95 PUSH2 0x10A JUMP JUMPDEST PUSH1 0x40 MLOAD PUSH2 0xA2 SWAP2 SWAP1 PUSH2 0x145 JUMP JUMPDEST PUSH1 0x40 MLOAD DUP1 SWAP2 SUB SWAP1 RETURN JUMPDEST PUSH2 0xB3 PUSH2 0x110 JUMP JUMPDEST PUSH1 0x40 MLOAD PUSH2 0xC0 SWAP2 SWAP1 PUSH2 0x145 JUMP JUMPDEST PUSH1 0x40 MLOAD DUP1 SWAP2 SUB SWAP1 RETURN JUMPDEST PUSH1 0x0 DUP1 PUSH1 0x5 PUSH1 0x0 SLOAD PUSH2 0xDB SWAP2 SWAP1 PUSH2 0x160 JUMP JUMPDEST SWAP1 POP DUP1 SWAP2 POP POP SWAP1 JUMP JUMPDEST PUSH1 0x0 DUP1 PUSH1 0x1 SWAP1 POP PUSH1 0x0 PUSH1 0x2 SWAP1 POP PUSH1 0x0 DUP2 DUP4 PUSH2 0xFF SWAP2 SWAP1 PUSH2 0x160 JUMP JUMPDEST SWAP1 POP DUP1 SWAP4 POP POP POP POP SWAP1 JUMP JUMPDEST PUSH1 0x0 SLOAD DUP2 JUMP JUMPDEST PUSH1 0x0 DUP1 PUSH1 0x1 SWAP1 POP PUSH1 0x0 PUSH1 0x2 SWAP1 POP PUSH1 0x0 DUP2 DUP4 PUSH2 0x12B SWAP2 SWAP1 PUSH2 0x160 JUMP JUMPDEST SWAP1 POP DUP1 SWAP4 POP POP POP POP SWAP1 JUMP JUMPDEST PUSH2 0x13F DUP2 PUSH2 0x1B6 JUMP JUMPDEST DUP3 MSTORE POP POP JUMP JUMPDEST PUSH1 0x0 PUSH1 0x20 DUP3 ADD SWAP1 POP PUSH2 0x15A PUSH1 0x0 DUP4 ADD DUP5 PUSH2 0x136 JUMP JUMPDEST SWAP3 SWAP2 POP POP JUMP JUMPDEST PUSH1 0x0 PUSH2 0x16B DUP3 PUSH2 0x1B6 JUMP JUMPDEST SWAP2 POP PUSH2 0x176 DUP4 PUSH2 0x1B6 JUMP JUMPDEST SWAP3 POP DUP3 PUSH32 0xFFFFFFFFFFFFFFFFFFFFFFFFFFFFFFFFFFFFFFFFFFFFFFFFFFFFFFFFFFFFFFFF SUB DUP3 GT ISZERO PUSH2 0x1AB JUMPI PUSH2 0x1AA PUSH2 0x1C0 JUMP JUMPDEST JUMPDEST DUP3 DUP3 ADD SWAP1 POP SWAP3 SWAP2 POP POP JUMP JUMPDEST PUSH1 0x0 DUP2 SWAP1 POP SWAP2 SWAP1 POP JUMP JUMPDEST PUSH32 0x4E487B7100000000000000000000000000000000000000000000000000000000 PUSH1 0x0 MSTORE PUSH1 0x11 PUSH1 0x4 MSTORE PUSH1 0x24 PUSH1 0x0 REVERT INVALID LOG2 PUSH5 0x6970667358 0x22 SLT KECCAK256 PUSH27 0x75E312D14BCC1939351D01B3BAF3AEB670E601D1258EC03F9B2D9B 0x23 PUSH16 0xF01864736F6C63430008000033000000 "
				},
				"gasEstimates": {
					"creation": {
						"codeDepositCost": "109800",
						"executionCost": "20165",
						"totalCost": "129965"
					},
					"external": {
						"getResult()": "infinite",
						"getResultWithGlobal()": "infinite",
						"getResultWithoutPure()": "infinite",
						"globalNum()": "1151"
					}
				},
				"methodIdentifiers": {
					"getResult()": "de292789",
					"getResultWithGlobal()": "087904e5",
					"getResultWithoutPure()": "355d8423",
					"globalNum()": "9212f533"
				}
			},
			"storageLayout": {
				"storage": [
					{
						"astId": 4,
						"contract": "local-variable.sol:LocalVariables",
						"label": "globalNum",
						"offset": 0,
						"slot": "0",
						"type": "t_uint256"
					}
				],
				"types": {
					"t_uint256": {
						"encoding": "inplace",
						"label": "uint256",
						"numberOfBytes": "32"
					}
				}
			},
			"userdoc": {
				"kind": "user",
				"methods": {},
				"version": 1
			}
		}
	}
}