{
	"Lab1/global-variable.sol": {
		"GlobalVariablesExample": {
			"abi": [
				{
					"inputs": [],
					"name": "getGlobal",
					"outputs": [
						{
							"internalType": "uint256",
							"name": "blockNumber",
							"type": "uint256"
						},
						{
							"internalType": "uint256",
							"name": "blockTimestamp",
							"type": "uint256"
						},
						{
							"internalType": "address",
							"name": "callerAddress",
							"type": "address"
						}
					],
					"stateMutability": "view",
					"type": "function"
				},
				{
					"inputs": [
						{
							"internalType": "uint256",
							"name": "deadline",
							"type": "uint256"
						}
					],
					"name": "isAfterDeadline",
					"outputs": [
						{
							"internalType": "bool",
							"name": "",
							"type": "bool"
						}
					],
					"stateMutability": "view",
					"type": "function"
				},
				{
					"inputs": [
						{
							"internalType": "uint256",
							"name": "timestamp",
							"type": "uint256"
						}
					],
					"name": "timestampToDate",
					"outputs": [
						{
							"internalType": "uint256",
							"name": "year",
							"type": "uint256"
						},
						{
							"internalType": "uint256",
							"name": "month",
							"type": "uint256"
						},
						{
							"internalType": "uint256",
							"name": "day",
							"type": "uint256"
						}
					],
					"stateMutability": "pure",
					"type": "function"
				}
			],
			"devdoc": {
				"kind": "dev",
				"methods": {},
				"version": 1
			},
			"evm": {
				"assembly": "    /* \"Lab1/global-variable.sol\":60:1808  contract GlobalVariablesExample {\r... */\n  mstore(0x40, 0x80)\n  callvalue\n  dup1\n  iszero\n  tag_1\n  jumpi\n  0x00\n  dup1\n  revert\ntag_1:\n  pop\n  dataSize(sub_0)\n  dup1\n  dataOffset(sub_0)\n  0x00\n  codecopy\n  0x00\n  return\nstop\n\nsub_0: assembly {\n        /* \"Lab1/global-variable.sol\":60:1808  contract GlobalVariablesExample {\r... */\n      mstore(0x40, 0x80)\n      callvalue\n      dup1\n      iszero\n      tag_1\n      jumpi\n      0x00\n      dup1\n      revert\n    tag_1:\n      pop\n      jumpi(tag_2, lt(calldatasize, 0x04))\n      shr(0xe0, calldataload(0x00))\n      dup1\n      0xa94b2d8f\n      eq\n      tag_3\n      jumpi\n      dup1\n      0xd0759b50\n      eq\n      tag_4\n      jumpi\n      dup1\n      0xde5101af\n      eq\n      tag_5\n      jumpi\n    tag_2:\n      0x00\n      dup1\n      revert\n        /* \"Lab1/global-variable.sol\":1675:1797  function isAfterDeadline(uint256 deadline) public view returns (bool) {\r... */\n    tag_3:\n      tag_6\n      0x04\n      dup1\n      calldatasize\n      sub\n      dup2\n      add\n      swap1\n      tag_7\n      swap2\n      swap1\n      tag_8\n      jump\t// in\n    tag_7:\n      tag_9\n      jump\t// in\n    tag_6:\n      mload(0x40)\n      tag_10\n      swap2\n      swap1\n      tag_11\n      jump\t// in\n    tag_10:\n      mload(0x40)\n      dup1\n      swap2\n      sub\n      swap1\n      return\n        /* \"Lab1/global-variable.sol\":175:499  function getGlobal() public view returns(\r... */\n    tag_4:\n      tag_12\n      tag_13\n      jump\t// in\n    tag_12:\n      mload(0x40)\n      tag_14\n      swap4\n      swap3\n      swap2\n      swap1\n      tag_15\n      jump\t// in\n    tag_14:\n      mload(0x40)\n      dup1\n      swap2\n      sub\n      swap1\n      return\n        /* \"Lab1/global-variable.sol\":507:1667  function timestampToDate(uint256 timestamp) public pure returns(uint year, uint month, uint day ) {\r... */\n    tag_5:\n      tag_16\n      0x04\n      dup1\n      calldatasize\n      sub\n      dup2\n      add\n      swap1\n      tag_17\n      swap2\n      swap1\n      tag_8\n      jump\t// in\n    tag_17:\n      tag_18\n      jump\t// in\n    tag_16:\n      mload(0x40)\n      tag_19\n      swap4\n      swap3\n      swap2\n      swap1\n      tag_20\n      jump\t// in\n    tag_19:\n      mload(0x40)\n      dup1\n      swap2\n      sub\n      swap1\n      return\n        /* \"Lab1/global-variable.sol\":1675:1797  function isAfterDeadline(uint256 deadline) public view returns (bool) {\r... */\n    tag_9:\n        /* \"Lab1/global-variable.sol\":1739:1743  bool */\n      0x00\n        /* \"Lab1/global-variable.sol\":1781:1789  deadline */\n      dup2\n        /* \"Lab1/global-variable.sol\":1763:1778  block.timestamp */\n      timestamp\n        /* \"Lab1/global-variable.sol\":1763:1789  block.timestamp > deadline */\n      gt\n        /* \"Lab1/global-variable.sol\":1756:1789  return block.timestamp > deadline */\n      swap1\n      pop\n        /* \"Lab1/global-variable.sol\":1675:1797  function isAfterDeadline(uint256 deadline) public view returns (bool) {\r... */\n      swap2\n      swap1\n      pop\n      jump\t// out\n        /* \"Lab1/global-variable.sol\":175:499  function getGlobal() public view returns(\r... */\n    tag_13:\n        /* \"Lab1/global-variable.sol\":226:242  uint blockNumber */\n      0x00\n        /* \"Lab1/global-variable.sol\":253:272  uint blockTimestamp */\n      dup1\n        /* \"Lab1/global-variable.sol\":283:304  address callerAddress */\n      0x00\n        /* \"Lab1/global-variable.sol\":337:349  block.number */\n      number\n        /* \"Lab1/global-variable.sol\":323:349  blockNumber = block.number */\n      swap3\n      pop\n        /* \"Lab1/global-variable.sol\":377:392  block.timestamp */\n      timestamp\n        /* \"Lab1/global-variable.sol\":360:392  blockTimestamp = block.timestamp */\n      swap2\n      pop\n        /* \"Lab1/global-variable.sol\":419:429  msg.sender */\n      caller\n        /* \"Lab1/global-variable.sol\":403:429  callerAddress = msg.sender */\n      swap1\n      pop\n        /* \"Lab1/global-variable.sol\":175:499  function getGlobal() public view returns(\r... */\n      swap1\n      swap2\n      swap3\n      jump\t// out\n        /* \"Lab1/global-variable.sol\":507:1667  function timestampToDate(uint256 timestamp) public pure returns(uint year, uint month, uint day ) {\r... */\n    tag_18:\n        /* \"Lab1/global-variable.sol\":571:580  uint year */\n      0x00\n        /* \"Lab1/global-variable.sol\":582:592  uint month */\n      dup1\n        /* \"Lab1/global-variable.sol\":594:602  uint day */\n      0x00\n        /* \"Lab1/global-variable.sol\":618:640  uint256 daysSinceEpoch */\n      dup1\n        /* \"Lab1/global-variable.sol\":655:660  86400 */\n      0x015180\n        /* \"Lab1/global-variable.sol\":643:652  timestamp */\n      dup6\n        /* \"Lab1/global-variable.sol\":643:660  timestamp / 86400 */\n      tag_24\n      swap2\n      swap1\n      tag_25\n      jump\t// in\n    tag_24:\n        /* \"Lab1/global-variable.sol\":618:660  uint256 daysSinceEpoch = timestamp / 86400 */\n      swap1\n      pop\n        /* \"Lab1/global-variable.sol\":671:688  uint256 yearCount */\n      0x00\n        /* \"Lab1/global-variable.sol\":705:1151  while(true) {\r... */\n    tag_26:\n        /* \"Lab1/global-variable.sol\":711:715  true */\n      0x01\n        /* \"Lab1/global-variable.sol\":705:1151  while(true) {\r... */\n      iszero\n      tag_27\n      jumpi\n        /* \"Lab1/global-variable.sol\":732:750  uint256 daysInYear */\n      0x00\n        /* \"Lab1/global-variable.sol\":753:756  365 */\n      0x016d\n        /* \"Lab1/global-variable.sol\":732:756  uint256 daysInYear = 365 */\n      swap1\n      pop\n        /* \"Lab1/global-variable.sol\":913:914  0 */\n      0x00\n        /* \"Lab1/global-variable.sol\":908:909  4 */\n      0x04\n        /* \"Lab1/global-variable.sol\":900:904  1970 */\n      0x07b2\n        /* \"Lab1/global-variable.sol\":888:897  yearCount */\n      dup5\n        /* \"Lab1/global-variable.sol\":888:904  yearCount + 1970 */\n      tag_28\n      swap2\n      swap1\n      tag_29\n      jump\t// in\n    tag_28:\n        /* \"Lab1/global-variable.sol\":887:909  (yearCount + 1970) % 4 */\n      tag_30\n      swap2\n      swap1\n      tag_31\n      jump\t// in\n    tag_30:\n        /* \"Lab1/global-variable.sol\":887:914  (yearCount + 1970) % 4 == 0 */\n      eq\n        /* \"Lab1/global-variable.sol\":887:961  (yearCount + 1970) % 4 == 0 && ((yearCount + 1970) % 100 != 0 || 400 == 0) */\n      dup1\n      iszero\n      tag_32\n      jumpi\n      pop\n        /* \"Lab1/global-variable.sol\":947:948  0 */\n      0x00\n        /* \"Lab1/global-variable.sol\":940:943  100 */\n      0x64\n        /* \"Lab1/global-variable.sol\":932:936  1970 */\n      0x07b2\n        /* \"Lab1/global-variable.sol\":920:929  yearCount */\n      dup5\n        /* \"Lab1/global-variable.sol\":920:936  yearCount + 1970 */\n      tag_33\n      swap2\n      swap1\n      tag_29\n      jump\t// in\n    tag_33:\n        /* \"Lab1/global-variable.sol\":919:943  (yearCount + 1970) % 100 */\n      tag_34\n      swap2\n      swap1\n      tag_31\n      jump\t// in\n    tag_34:\n        /* \"Lab1/global-variable.sol\":919:948  (yearCount + 1970) % 100 != 0 */\n      eq\n      iszero\n        /* \"Lab1/global-variable.sol\":919:960  (yearCount + 1970) % 100 != 0 || 400 == 0 */\n      dup1\n      tag_35\n      jumpi\n      pop\n        /* \"Lab1/global-variable.sol\":959:960  0 */\n      0x00\n        /* \"Lab1/global-variable.sol\":952:955  400 */\n      0x0190\n        /* \"Lab1/global-variable.sol\":952:960  400 == 0 */\n      eq\n        /* \"Lab1/global-variable.sol\":919:960  (yearCount + 1970) % 100 != 0 || 400 == 0 */\n    tag_35:\n        /* \"Lab1/global-variable.sol\":887:961  (yearCount + 1970) % 4 == 0 && ((yearCount + 1970) % 100 != 0 || 400 == 0) */\n    tag_32:\n        /* \"Lab1/global-variable.sol\":883:1014  if ((yearCount + 1970) % 4 == 0 && ((yearCount + 1970) % 100 != 0 || 400 == 0)) {\r... */\n      iszero\n      tag_36\n      jumpi\n        /* \"Lab1/global-variable.sol\":995:998  366 */\n      0x016e\n        /* \"Lab1/global-variable.sol\":982:998  daysInYear = 366 */\n      swap1\n      pop\n        /* \"Lab1/global-variable.sol\":883:1014  if ((yearCount + 1970) % 4 == 0 && ((yearCount + 1970) % 100 != 0 || 400 == 0)) {\r... */\n    tag_36:\n        /* \"Lab1/global-variable.sol\":1051:1061  daysInYear */\n      dup1\n        /* \"Lab1/global-variable.sol\":1034:1048  daysSinceEpoch */\n      dup4\n        /* \"Lab1/global-variable.sol\":1034:1061  daysSinceEpoch < daysInYear */\n      lt\n        /* \"Lab1/global-variable.sol\":1030:1068  if (daysSinceEpoch < daysInYear) break */\n      iszero\n      tag_37\n      jumpi\n        /* \"Lab1/global-variable.sol\":1063:1068  break */\n      pop\n      jump(tag_27)\n        /* \"Lab1/global-variable.sol\":1030:1068  if (daysSinceEpoch < daysInYear) break */\n    tag_37:\n        /* \"Lab1/global-variable.sol\":1101:1111  daysInYear */\n      dup1\n        /* \"Lab1/global-variable.sol\":1083:1111  daysSinceEpoch -= daysInYear */\n      dup4\n      tag_38\n      swap2\n      swap1\n      tag_39\n      jump\t// in\n    tag_38:\n      swap3\n      pop\n        /* \"Lab1/global-variable.sol\":1126:1137  yearCount++ */\n      dup2\n      dup1\n      tag_40\n      swap1\n      tag_41\n      jump\t// in\n    tag_40:\n      swap3\n      pop\n      pop\n        /* \"Lab1/global-variable.sol\":705:1151  while(true) {\r... */\n      pop\n      jump(tag_26)\n    tag_27:\n        /* \"Lab1/global-variable.sol\":1175:1184  yearCount */\n      dup1\n        /* \"Lab1/global-variable.sol\":1168:1172  1970 */\n      0x07b2\n        /* \"Lab1/global-variable.sol\":1168:1184  1970 + yearCount */\n      tag_42\n      swap2\n      swap1\n      tag_29\n      jump\t// in\n    tag_42:\n        /* \"Lab1/global-variable.sol\":1161:1184  year = 1970 + yearCount */\n      swap5\n      pop\n        /* \"Lab1/global-variable.sol\":1207:1235  uint8[12] memory daysInMonth */\n      0x00\n        /* \"Lab1/global-variable.sol\":1207:1275  uint8[12] memory daysInMonth = [31,28,31,30,31,30,31,31,30,31,30,31] */\n      mload(0x40)\n      dup1\n      0x0180\n      add\n      0x40\n      mstore\n      dup1\n        /* \"Lab1/global-variable.sol\":1239:1241  31 */\n      0x1f\n        /* \"Lab1/global-variable.sol\":1207:1275  uint8[12] memory daysInMonth = [31,28,31,30,31,30,31,31,30,31,30,31] */\n      0xff\n      and\n      dup2\n      mstore\n      0x20\n      add\n        /* \"Lab1/global-variable.sol\":1242:1244  28 */\n      0x1c\n        /* \"Lab1/global-variable.sol\":1207:1275  uint8[12] memory daysInMonth = [31,28,31,30,31,30,31,31,30,31,30,31] */\n      0xff\n      and\n      dup2\n      mstore\n      0x20\n      add\n        /* \"Lab1/global-variable.sol\":1245:1247  31 */\n      0x1f\n        /* \"Lab1/global-variable.sol\":1207:1275  uint8[12] memory daysInMonth = [31,28,31,30,31,30,31,31,30,31,30,31] */\n      0xff\n      and\n      dup2\n      mstore\n      0x20\n      add\n        /* \"Lab1/global-variable.sol\":1248:1250  30 */\n      0x1e\n        /* \"Lab1/global-variable.sol\":1207:1275  uint8[12] memory daysInMonth = [31,28,31,30,31,30,31,31,30,31,30,31] */\n      0xff\n      and\n      dup2\n      mstore\n      0x20\n      add\n        /* \"Lab1/global-variable.sol\":1251:1253  31 */\n      0x1f\n        /* \"Lab1/global-variable.sol\":1207:1275  uint8[12] memory daysInMonth = [31,28,31,30,31,30,31,31,30,31,30,31] */\n      0xff\n      and\n      dup2\n      mstore\n      0x20\n      add\n        /* \"Lab1/global-variable.sol\":1254:1256  30 */\n      0x1e\n        /* \"Lab1/global-variable.sol\":1207:1275  uint8[12] memory daysInMonth = [31,28,31,30,31,30,31,31,30,31,30,31] */\n      0xff\n      and\n      dup2\n      mstore\n      0x20\n      add\n        /* \"Lab1/global-variable.sol\":1257:1259  31 */\n      0x1f\n        /* \"Lab1/global-variable.sol\":1207:1275  uint8[12] memory daysInMonth = [31,28,31,30,31,30,31,31,30,31,30,31] */\n      0xff\n      and\n      dup2\n      mstore\n      0x20\n      add\n        /* \"Lab1/global-variable.sol\":1260:1262  31 */\n      0x1f\n        /* \"Lab1/global-variable.sol\":1207:1275  uint8[12] memory daysInMonth = [31,28,31,30,31,30,31,31,30,31,30,31] */\n      0xff\n      and\n      dup2\n      mstore\n      0x20\n      add\n        /* \"Lab1/global-variable.sol\":1263:1265  30 */\n      0x1e\n        /* \"Lab1/global-variable.sol\":1207:1275  uint8[12] memory daysInMonth = [31,28,31,30,31,30,31,31,30,31,30,31] */\n      0xff\n      and\n      dup2\n      mstore\n      0x20\n      add\n        /* \"Lab1/global-variable.sol\":1266:1268  31 */\n      0x1f\n        /* \"Lab1/global-variable.sol\":1207:1275  uint8[12] memory daysInMonth = [31,28,31,30,31,30,31,31,30,31,30,31] */\n      0xff\n      and\n      dup2\n      mstore\n      0x20\n      add\n        /* \"Lab1/global-variable.sol\":1269:1271  30 */\n      0x1e\n        /* \"Lab1/global-variable.sol\":1207:1275  uint8[12] memory daysInMonth = [31,28,31,30,31,30,31,31,30,31,30,31] */\n      0xff\n      and\n      dup2\n      mstore\n      0x20\n      add\n        /* \"Lab1/global-variable.sol\":1272:1274  31 */\n      0x1f\n        /* \"Lab1/global-variable.sol\":1207:1275  uint8[12] memory daysInMonth = [31,28,31,30,31,30,31,31,30,31,30,31] */\n      0xff\n      and\n      dup2\n      mstore\n      pop\n      swap1\n      pop\n        /* \"Lab1/global-variable.sol\":1332:1333  0 */\n      0x00\n        /* \"Lab1/global-variable.sol\":1327:1328  4 */\n      0x04\n        /* \"Lab1/global-variable.sol\":1320:1324  year */\n      dup8\n        /* \"Lab1/global-variable.sol\":1320:1328  year % 4 */\n      tag_43\n      swap2\n      swap1\n      tag_31\n      jump\t// in\n    tag_43:\n        /* \"Lab1/global-variable.sol\":1320:1333  year % 4 == 0 */\n      eq\n        /* \"Lab1/global-variable.sol\":1320:1373  year % 4 == 0 && (year % 100 != 0 || year % 400 == 0) */\n      dup1\n      iszero\n      tag_44\n      jumpi\n      pop\n        /* \"Lab1/global-variable.sol\":1352:1353  0 */\n      0x00\n        /* \"Lab1/global-variable.sol\":1345:1348  100 */\n      0x64\n        /* \"Lab1/global-variable.sol\":1338:1342  year */\n      dup8\n        /* \"Lab1/global-variable.sol\":1338:1348  year % 100 */\n      tag_45\n      swap2\n      swap1\n      tag_31\n      jump\t// in\n    tag_45:\n        /* \"Lab1/global-variable.sol\":1338:1353  year % 100 != 0 */\n      eq\n      iszero\n        /* \"Lab1/global-variable.sol\":1338:1372  year % 100 != 0 || year % 400 == 0 */\n      dup1\n      tag_46\n      jumpi\n      pop\n        /* \"Lab1/global-variable.sol\":1371:1372  0 */\n      0x00\n        /* \"Lab1/global-variable.sol\":1364:1367  400 */\n      0x0190\n        /* \"Lab1/global-variable.sol\":1357:1361  year */\n      dup8\n        /* \"Lab1/global-variable.sol\":1357:1367  year % 400 */\n      tag_47\n      swap2\n      swap1\n      tag_31\n      jump\t// in\n    tag_47:\n        /* \"Lab1/global-variable.sol\":1357:1372  year % 400 == 0 */\n      eq\n        /* \"Lab1/global-variable.sol\":1338:1372  year % 100 != 0 || year % 400 == 0 */\n    tag_46:\n        /* \"Lab1/global-variable.sol\":1320:1373  year % 4 == 0 && (year % 100 != 0 || year % 400 == 0) */\n    tag_44:\n        /* \"Lab1/global-variable.sol\":1316:1421  if (year % 4 == 0 && (year % 100 != 0 || year % 400 == 0)) {\r... */\n      iszero\n      tag_48\n      jumpi\n        /* \"Lab1/global-variable.sol\":1407:1409  29 */\n      0x1d\n        /* \"Lab1/global-variable.sol\":1390:1401  daysInMonth */\n      dup2\n        /* \"Lab1/global-variable.sol\":1402:1403  1 */\n      0x01\n        /* \"Lab1/global-variable.sol\":1390:1404  daysInMonth[1] */\n      0x0c\n      dup2\n      lt\n      tag_49\n      jumpi\n      mstore(0x00, 0x4e487b7100000000000000000000000000000000000000000000000000000000)\n      mstore(0x04, 0x32)\n      revert(0x00, 0x24)\n    tag_49:\n      0x20\n      mul\n      add\n        /* \"Lab1/global-variable.sol\":1390:1409  daysInMonth[1] = 29 */\n      swap1\n      0xff\n      and\n      swap1\n      dup2\n      0xff\n      and\n      dup2\n      mstore\n      pop\n      pop\n        /* \"Lab1/global-variable.sol\":1316:1421  if (year % 4 == 0 && (year % 100 != 0 || year % 400 == 0)) {\r... */\n    tag_48:\n        /* \"Lab1/global-variable.sol\":1446:1447  1 */\n      0x01\n        /* \"Lab1/global-variable.sol\":1438:1447  month = 1 */\n      swap5\n      pop\n        /* \"Lab1/global-variable.sol\":1433:1603  for (month = 1; month <= 12; month++) {\r... */\n    tag_50:\n        /* \"Lab1/global-variable.sol\":1458:1460  12 */\n      0x0c\n        /* \"Lab1/global-variable.sol\":1449:1454  month */\n      dup6\n        /* \"Lab1/global-variable.sol\":1449:1460  month <= 12 */\n      gt\n        /* \"Lab1/global-variable.sol\":1433:1603  for (month = 1; month <= 12; month++) {\r... */\n      tag_51\n      jumpi\n        /* \"Lab1/global-variable.sol\":1507:1518  daysInMonth */\n      dup1\n        /* \"Lab1/global-variable.sol\":1527:1528  1 */\n      0x01\n        /* \"Lab1/global-variable.sol\":1519:1524  month */\n      dup7\n        /* \"Lab1/global-variable.sol\":1519:1528  month - 1 */\n      tag_53\n      swap2\n      swap1\n      tag_39\n      jump\t// in\n    tag_53:\n        /* \"Lab1/global-variable.sol\":1507:1529  daysInMonth[month - 1] */\n      0x0c\n      dup2\n      lt\n      tag_54\n      jumpi\n      mstore(0x00, 0x4e487b7100000000000000000000000000000000000000000000000000000000)\n      mstore(0x04, 0x32)\n      revert(0x00, 0x24)\n    tag_54:\n      0x20\n      mul\n      add\n      mload\n        /* \"Lab1/global-variable.sol\":1490:1529  daysSinceEpoch < daysInMonth[month - 1] */\n      0xff\n      and\n        /* \"Lab1/global-variable.sol\":1490:1504  daysSinceEpoch */\n      dup4\n        /* \"Lab1/global-variable.sol\":1490:1529  daysSinceEpoch < daysInMonth[month - 1] */\n      lt\n        /* \"Lab1/global-variable.sol\":1486:1536  if (daysSinceEpoch < daysInMonth[month - 1]) break */\n      iszero\n      tag_55\n      jumpi\n        /* \"Lab1/global-variable.sol\":1531:1536  break */\n      jump(tag_51)\n        /* \"Lab1/global-variable.sol\":1486:1536  if (daysSinceEpoch < daysInMonth[month - 1]) break */\n    tag_55:\n        /* \"Lab1/global-variable.sol\":1569:1580  daysInMonth */\n      dup1\n        /* \"Lab1/global-variable.sol\":1589:1590  1 */\n      0x01\n        /* \"Lab1/global-variable.sol\":1581:1586  month */\n      dup7\n        /* \"Lab1/global-variable.sol\":1581:1590  month - 1 */\n      tag_56\n      swap2\n      swap1\n      tag_39\n      jump\t// in\n    tag_56:\n        /* \"Lab1/global-variable.sol\":1569:1591  daysInMonth[month - 1] */\n      0x0c\n      dup2\n      lt\n      tag_57\n      jumpi\n      mstore(0x00, 0x4e487b7100000000000000000000000000000000000000000000000000000000)\n      mstore(0x04, 0x32)\n      revert(0x00, 0x24)\n    tag_57:\n      0x20\n      mul\n      add\n      mload\n        /* \"Lab1/global-variable.sol\":1551:1591  daysSinceEpoch -= daysInMonth[month - 1] */\n      0xff\n      and\n      dup4\n      tag_58\n      swap2\n      swap1\n      tag_39\n      jump\t// in\n    tag_58:\n      swap3\n      pop\n        /* \"Lab1/global-variable.sol\":1462:1469  month++ */\n      dup5\n      dup1\n      tag_59\n      swap1\n      tag_41\n      jump\t// in\n    tag_59:\n      swap6\n      pop\n      pop\n        /* \"Lab1/global-variable.sol\":1433:1603  for (month = 1; month <= 12; month++) {\r... */\n      jump(tag_50)\n    tag_51:\n        /* \"Lab1/global-variable.sol\":1636:1637  1 */\n      0x01\n        /* \"Lab1/global-variable.sol\":1619:1633  daysSinceEpoch */\n      dup4\n        /* \"Lab1/global-variable.sol\":1619:1637  daysSinceEpoch + 1 */\n      tag_60\n      swap2\n      swap1\n      tag_29\n      jump\t// in\n    tag_60:\n        /* \"Lab1/global-variable.sol\":1613:1637  day = daysSinceEpoch + 1 */\n      swap4\n      pop\n        /* \"Lab1/global-variable.sol\":507:1667  function timestampToDate(uint256 timestamp) public pure returns(uint year, uint month, uint day ) {\r... */\n      pop\n      pop\n      pop\n      swap2\n      swap4\n      swap1\n      swap3\n      pop\n      jump\t// out\n        /* \"#utility.yul\":7:146   */\n    tag_62:\n      0x00\n        /* \"#utility.yul\":91:97   */\n      dup2\n        /* \"#utility.yul\":78:98   */\n      calldataload\n        /* \"#utility.yul\":69:98   */\n      swap1\n      pop\n        /* \"#utility.yul\":107:140   */\n      tag_64\n        /* \"#utility.yul\":134:139   */\n      dup2\n        /* \"#utility.yul\":107:140   */\n      tag_65\n      jump\t// in\n    tag_64:\n        /* \"#utility.yul\":59:146   */\n      swap3\n      swap2\n      pop\n      pop\n      jump\t// out\n        /* \"#utility.yul\":152:414   */\n    tag_8:\n      0x00\n        /* \"#utility.yul\":260:262   */\n      0x20\n        /* \"#utility.yul\":248:257   */\n      dup3\n        /* \"#utility.yul\":239:246   */\n      dup5\n        /* \"#utility.yul\":235:258   */\n      sub\n        /* \"#utility.yul\":231:263   */\n      slt\n        /* \"#utility.yul\":228:230   */\n      iszero\n      tag_67\n      jumpi\n        /* \"#utility.yul\":276:277   */\n      0x00\n        /* \"#utility.yul\":273:274   */\n      dup1\n        /* \"#utility.yul\":266:278   */\n      revert\n        /* \"#utility.yul\":228:230   */\n    tag_67:\n        /* \"#utility.yul\":319:320   */\n      0x00\n        /* \"#utility.yul\":344:397   */\n      tag_68\n        /* \"#utility.yul\":389:396   */\n      dup5\n        /* \"#utility.yul\":380:386   */\n      dup3\n        /* \"#utility.yul\":369:378   */\n      dup6\n        /* \"#utility.yul\":365:387   */\n      add\n        /* \"#utility.yul\":344:397   */\n      tag_62\n      jump\t// in\n    tag_68:\n        /* \"#utility.yul\":334:397   */\n      swap2\n      pop\n        /* \"#utility.yul\":290:407   */\n      pop\n        /* \"#utility.yul\":218:414   */\n      swap3\n      swap2\n      pop\n      pop\n      jump\t// out\n        /* \"#utility.yul\":420:538   */\n    tag_69:\n        /* \"#utility.yul\":507:531   */\n      tag_71\n        /* \"#utility.yul\":525:530   */\n      dup2\n        /* \"#utility.yul\":507:531   */\n      tag_72\n      jump\t// in\n    tag_71:\n        /* \"#utility.yul\":502:505   */\n      dup3\n        /* \"#utility.yul\":495:532   */\n      mstore\n        /* \"#utility.yul\":485:538   */\n      pop\n      pop\n      jump\t// out\n        /* \"#utility.yul\":544:653   */\n    tag_73:\n        /* \"#utility.yul\":625:646   */\n      tag_75\n        /* \"#utility.yul\":640:645   */\n      dup2\n        /* \"#utility.yul\":625:646   */\n      tag_76\n      jump\t// in\n    tag_75:\n        /* \"#utility.yul\":620:623   */\n      dup3\n        /* \"#utility.yul\":613:647   */\n      mstore\n        /* \"#utility.yul\":603:653   */\n      pop\n      pop\n      jump\t// out\n        /* \"#utility.yul\":659:777   */\n    tag_77:\n        /* \"#utility.yul\":746:770   */\n      tag_79\n        /* \"#utility.yul\":764:769   */\n      dup2\n        /* \"#utility.yul\":746:770   */\n      tag_80\n      jump\t// in\n    tag_79:\n        /* \"#utility.yul\":741:744   */\n      dup3\n        /* \"#utility.yul\":734:771   */\n      mstore\n        /* \"#utility.yul\":724:777   */\n      pop\n      pop\n      jump\t// out\n        /* \"#utility.yul\":783:993   */\n    tag_11:\n      0x00\n        /* \"#utility.yul\":908:910   */\n      0x20\n        /* \"#utility.yul\":897:906   */\n      dup3\n        /* \"#utility.yul\":893:911   */\n      add\n        /* \"#utility.yul\":885:911   */\n      swap1\n      pop\n        /* \"#utility.yul\":921:986   */\n      tag_82\n        /* \"#utility.yul\":983:984   */\n      0x00\n        /* \"#utility.yul\":972:981   */\n      dup4\n        /* \"#utility.yul\":968:985   */\n      add\n        /* \"#utility.yul\":959:965   */\n      dup5\n        /* \"#utility.yul\":921:986   */\n      tag_73\n      jump\t// in\n    tag_82:\n        /* \"#utility.yul\":875:993   */\n      swap3\n      swap2\n      pop\n      pop\n      jump\t// out\n        /* \"#utility.yul\":999:1441   */\n    tag_15:\n      0x00\n        /* \"#utility.yul\":1186:1188   */\n      0x60\n        /* \"#utility.yul\":1175:1184   */\n      dup3\n        /* \"#utility.yul\":1171:1189   */\n      add\n        /* \"#utility.yul\":1163:1189   */\n      swap1\n      pop\n        /* \"#utility.yul\":1199:1270   */\n      tag_84\n        /* \"#utility.yul\":1267:1268   */\n      0x00\n        /* \"#utility.yul\":1256:1265   */\n      dup4\n        /* \"#utility.yul\":1252:1269   */\n      add\n        /* \"#utility.yul\":1243:1249   */\n      dup7\n        /* \"#utility.yul\":1199:1270   */\n      tag_77\n      jump\t// in\n    tag_84:\n        /* \"#utility.yul\":1280:1352   */\n      tag_85\n        /* \"#utility.yul\":1348:1350   */\n      0x20\n        /* \"#utility.yul\":1337:1346   */\n      dup4\n        /* \"#utility.yul\":1333:1351   */\n      add\n        /* \"#utility.yul\":1324:1330   */\n      dup6\n        /* \"#utility.yul\":1280:1352   */\n      tag_77\n      jump\t// in\n    tag_85:\n        /* \"#utility.yul\":1362:1434   */\n      tag_86\n        /* \"#utility.yul\":1430:1432   */\n      0x40\n        /* \"#utility.yul\":1419:1428   */\n      dup4\n        /* \"#utility.yul\":1415:1433   */\n      add\n        /* \"#utility.yul\":1406:1412   */\n      dup5\n        /* \"#utility.yul\":1362:1434   */\n      tag_69\n      jump\t// in\n    tag_86:\n        /* \"#utility.yul\":1153:1441   */\n      swap5\n      swap4\n      pop\n      pop\n      pop\n      pop\n      jump\t// out\n        /* \"#utility.yul\":1447:1889   */\n    tag_20:\n      0x00\n        /* \"#utility.yul\":1634:1636   */\n      0x60\n        /* \"#utility.yul\":1623:1632   */\n      dup3\n        /* \"#utility.yul\":1619:1637   */\n      add\n        /* \"#utility.yul\":1611:1637   */\n      swap1\n      pop\n        /* \"#utility.yul\":1647:1718   */\n      tag_88\n        /* \"#utility.yul\":1715:1716   */\n      0x00\n        /* \"#utility.yul\":1704:1713   */\n      dup4\n        /* \"#utility.yul\":1700:1717   */\n      add\n        /* \"#utility.yul\":1691:1697   */\n      dup7\n        /* \"#utility.yul\":1647:1718   */\n      tag_77\n      jump\t// in\n    tag_88:\n        /* \"#utility.yul\":1728:1800   */\n      tag_89\n        /* \"#utility.yul\":1796:1798   */\n      0x20\n        /* \"#utility.yul\":1785:1794   */\n      dup4\n        /* \"#utility.yul\":1781:1799   */\n      add\n        /* \"#utility.yul\":1772:1778   */\n      dup6\n        /* \"#utility.yul\":1728:1800   */\n      tag_77\n      jump\t// in\n    tag_89:\n        /* \"#utility.yul\":1810:1882   */\n      tag_90\n        /* \"#utility.yul\":1878:1880   */\n      0x40\n        /* \"#utility.yul\":1867:1876   */\n      dup4\n        /* \"#utility.yul\":1863:1881   */\n      add\n        /* \"#utility.yul\":1854:1860   */\n      dup5\n        /* \"#utility.yul\":1810:1882   */\n      tag_77\n      jump\t// in\n    tag_90:\n        /* \"#utility.yul\":1601:1889   */\n      swap5\n      swap4\n      pop\n      pop\n      pop\n      pop\n      jump\t// out\n        /* \"#utility.yul\":1895:2200   */\n    tag_29:\n      0x00\n        /* \"#utility.yul\":1954:1974   */\n      tag_92\n        /* \"#utility.yul\":1972:1973   */\n      dup3\n        /* \"#utility.yul\":1954:1974   */\n      tag_80\n      jump\t// in\n    tag_92:\n        /* \"#utility.yul\":1949:1974   */\n      swap2\n      pop\n        /* \"#utility.yul\":1988:2008   */\n      tag_93\n        /* \"#utility.yul\":2006:2007   */\n      dup4\n        /* \"#utility.yul\":1988:2008   */\n      tag_80\n      jump\t// in\n    tag_93:\n        /* \"#utility.yul\":1983:2008   */\n      swap3\n      pop\n        /* \"#utility.yul\":2142:2143   */\n      dup3\n        /* \"#utility.yul\":2074:2140   */\n      0xffffffffffffffffffffffffffffffffffffffffffffffffffffffffffffffff\n        /* \"#utility.yul\":2070:2144   */\n      sub\n        /* \"#utility.yul\":2067:2068   */\n      dup3\n        /* \"#utility.yul\":2064:2145   */\n      gt\n        /* \"#utility.yul\":2061:2063   */\n      iszero\n      tag_94\n      jumpi\n        /* \"#utility.yul\":2148:2166   */\n      tag_95\n      tag_96\n      jump\t// in\n    tag_95:\n        /* \"#utility.yul\":2061:2063   */\n    tag_94:\n        /* \"#utility.yul\":2192:2193   */\n      dup3\n        /* \"#utility.yul\":2189:2190   */\n      dup3\n        /* \"#utility.yul\":2185:2194   */\n      add\n        /* \"#utility.yul\":2178:2194   */\n      swap1\n      pop\n        /* \"#utility.yul\":1939:2200   */\n      swap3\n      swap2\n      pop\n      pop\n      jump\t// out\n        /* \"#utility.yul\":2206:2391   */\n    tag_25:\n      0x00\n        /* \"#utility.yul\":2263:2283   */\n      tag_98\n        /* \"#utility.yul\":2281:2282   */\n      dup3\n        /* \"#utility.yul\":2263:2283   */\n      tag_80\n      jump\t// in\n    tag_98:\n        /* \"#utility.yul\":2258:2283   */\n      swap2\n      pop\n        /* \"#utility.yul\":2297:2317   */\n      tag_99\n        /* \"#utility.yul\":2315:2316   */\n      dup4\n        /* \"#utility.yul\":2297:2317   */\n      tag_80\n      jump\t// in\n    tag_99:\n        /* \"#utility.yul\":2292:2317   */\n      swap3\n      pop\n        /* \"#utility.yul\":2336:2337   */\n      dup3\n        /* \"#utility.yul\":2326:2328   */\n      tag_100\n      jumpi\n        /* \"#utility.yul\":2341:2359   */\n      tag_101\n      tag_102\n      jump\t// in\n    tag_101:\n        /* \"#utility.yul\":2326:2328   */\n    tag_100:\n        /* \"#utility.yul\":2383:2384   */\n      dup3\n        /* \"#utility.yul\":2380:2381   */\n      dup3\n        /* \"#utility.yul\":2376:2385   */\n      div\n        /* \"#utility.yul\":2371:2385   */\n      swap1\n      pop\n        /* \"#utility.yul\":2248:2391   */\n      swap3\n      swap2\n      pop\n      pop\n      jump\t// out\n        /* \"#utility.yul\":2397:2588   */\n    tag_39:\n      0x00\n        /* \"#utility.yul\":2457:2477   */\n      tag_104\n        /* \"#utility.yul\":2475:2476   */\n      dup3\n        /* \"#utility.yul\":2457:2477   */\n      tag_80\n      jump\t// in\n    tag_104:\n        /* \"#utility.yul\":2452:2477   */\n      swap2\n      pop\n        /* \"#utility.yul\":2491:2511   */\n      tag_105\n        /* \"#utility.yul\":2509:2510   */\n      dup4\n        /* \"#utility.yul\":2491:2511   */\n      tag_80\n      jump\t// in\n    tag_105:\n        /* \"#utility.yul\":2486:2511   */\n      swap3\n      pop\n        /* \"#utility.yul\":2530:2531   */\n      dup3\n        /* \"#utility.yul\":2527:2528   */\n      dup3\n        /* \"#utility.yul\":2524:2532   */\n      lt\n        /* \"#utility.yul\":2521:2523   */\n      iszero\n      tag_106\n      jumpi\n        /* \"#utility.yul\":2535:2553   */\n      tag_107\n      tag_96\n      jump\t// in\n    tag_107:\n        /* \"#utility.yul\":2521:2523   */\n    tag_106:\n        /* \"#utility.yul\":2580:2581   */\n      dup3\n        /* \"#utility.yul\":2577:2578   */\n      dup3\n        /* \"#utility.yul\":2573:2582   */\n      sub\n        /* \"#utility.yul\":2565:2582   */\n      swap1\n      pop\n        /* \"#utility.yul\":2442:2588   */\n      swap3\n      swap2\n      pop\n      pop\n      jump\t// out\n        /* \"#utility.yul\":2594:2690   */\n    tag_72:\n      0x00\n        /* \"#utility.yul\":2660:2684   */\n      tag_109\n        /* \"#utility.yul\":2678:2683   */\n      dup3\n        /* \"#utility.yul\":2660:2684   */\n      tag_110\n      jump\t// in\n    tag_109:\n        /* \"#utility.yul\":2649:2684   */\n      swap1\n      pop\n        /* \"#utility.yul\":2639:2690   */\n      swap2\n      swap1\n      pop\n      jump\t// out\n        /* \"#utility.yul\":2696:2786   */\n    tag_76:\n      0x00\n        /* \"#utility.yul\":2773:2778   */\n      dup2\n        /* \"#utility.yul\":2766:2779   */\n      iszero\n        /* \"#utility.yul\":2759:2780   */\n      iszero\n        /* \"#utility.yul\":2748:2780   */\n      swap1\n      pop\n        /* \"#utility.yul\":2738:2786   */\n      swap2\n      swap1\n      pop\n      jump\t// out\n        /* \"#utility.yul\":2792:2918   */\n    tag_110:\n      0x00\n        /* \"#utility.yul\":2869:2911   */\n      0xffffffffffffffffffffffffffffffffffffffff\n        /* \"#utility.yul\":2862:2867   */\n      dup3\n        /* \"#utility.yul\":2858:2912   */\n      and\n        /* \"#utility.yul\":2847:2912   */\n      swap1\n      pop\n        /* \"#utility.yul\":2837:2918   */\n      swap2\n      swap1\n      pop\n      jump\t// out\n        /* \"#utility.yul\":2924:3001   */\n    tag_80:\n      0x00\n        /* \"#utility.yul\":2990:2995   */\n      dup2\n        /* \"#utility.yul\":2979:2995   */\n      swap1\n      pop\n        /* \"#utility.yul\":2969:3001   */\n      swap2\n      swap1\n      pop\n      jump\t// out\n        /* \"#utility.yul\":3007:3240   */\n    tag_41:\n      0x00\n        /* \"#utility.yul\":3069:3093   */\n      tag_115\n        /* \"#utility.yul\":3087:3092   */\n      dup3\n        /* \"#utility.yul\":3069:3093   */\n      tag_80\n      jump\t// in\n    tag_115:\n        /* \"#utility.yul\":3060:3093   */\n      swap2\n      pop\n        /* \"#utility.yul\":3115:3181   */\n      0xffffffffffffffffffffffffffffffffffffffffffffffffffffffffffffffff\n        /* \"#utility.yul\":3108:3113   */\n      dup3\n        /* \"#utility.yul\":3105:3182   */\n      eq\n        /* \"#utility.yul\":3102:3104   */\n      iszero\n      tag_116\n      jumpi\n        /* \"#utility.yul\":3185:3203   */\n      tag_117\n      tag_96\n      jump\t// in\n    tag_117:\n        /* \"#utility.yul\":3102:3104   */\n    tag_116:\n        /* \"#utility.yul\":3232:3233   */\n      0x01\n        /* \"#utility.yul\":3225:3230   */\n      dup3\n        /* \"#utility.yul\":3221:3234   */\n      add\n        /* \"#utility.yul\":3214:3234   */\n      swap1\n      pop\n        /* \"#utility.yul\":3050:3240   */\n      swap2\n      swap1\n      pop\n      jump\t// out\n        /* \"#utility.yul\":3246:3422   */\n    tag_31:\n      0x00\n        /* \"#utility.yul\":3295:3315   */\n      tag_119\n        /* \"#utility.yul\":3313:3314   */\n      dup3\n        /* \"#utility.yul\":3295:3315   */\n      tag_80\n      jump\t// in\n    tag_119:\n        /* \"#utility.yul\":3290:3315   */\n      swap2\n      pop\n        /* \"#utility.yul\":3329:3349   */\n      tag_120\n        /* \"#utility.yul\":3347:3348   */\n      dup4\n        /* \"#utility.yul\":3329:3349   */\n      tag_80\n      jump\t// in\n    tag_120:\n        /* \"#utility.yul\":3324:3349   */\n      swap3\n      pop\n        /* \"#utility.yul\":3368:3369   */\n      dup3\n        /* \"#utility.yul\":3358:3360   */\n      tag_121\n      jumpi\n        /* \"#utility.yul\":3373:3391   */\n      tag_122\n      tag_102\n      jump\t// in\n    tag_122:\n        /* \"#utility.yul\":3358:3360   */\n    tag_121:\n        /* \"#utility.yul\":3414:3415   */\n      dup3\n        /* \"#utility.yul\":3411:3412   */\n      dup3\n        /* \"#utility.yul\":3407:3416   */\n      mod\n        /* \"#utility.yul\":3402:3416   */\n      swap1\n      pop\n        /* \"#utility.yul\":3280:3422   */\n      swap3\n      swap2\n      pop\n      pop\n      jump\t// out\n        /* \"#utility.yul\":3428:3608   */\n    tag_96:\n        /* \"#utility.yul\":3476:3553   */\n      0x4e487b7100000000000000000000000000000000000000000000000000000000\n        /* \"#utility.yul\":3473:3474   */\n      0x00\n        /* \"#utility.yul\":3466:3554   */\n      mstore\n        /* \"#utility.yul\":3573:3577   */\n      0x11\n        /* \"#utility.yul\":3570:3571   */\n      0x04\n        /* \"#utility.yul\":3563:3578   */\n      mstore\n        /* \"#utility.yul\":3597:3601   */\n      0x24\n        /* \"#utility.yul\":3594:3595   */\n      0x00\n        /* \"#utility.yul\":3587:3602   */\n      revert\n        /* \"#utility.yul\":3614:3794   */\n    tag_102:\n        /* \"#utility.yul\":3662:3739   */\n      0x4e487b7100000000000000000000000000000000000000000000000000000000\n        /* \"#utility.yul\":3659:3660   */\n      0x00\n        /* \"#utility.yul\":3652:3740   */\n      mstore\n        /* \"#utility.yul\":3759:3763   */\n      0x12\n        /* \"#utility.yul\":3756:3757   */\n      0x04\n        /* \"#utility.yul\":3749:3764   */\n      mstore\n        /* \"#utility.yul\":3783:3787   */\n      0x24\n        /* \"#utility.yul\":3780:3781   */\n      0x00\n        /* \"#utility.yul\":3773:3788   */\n      revert\n        /* \"#utility.yul\":3800:3922   */\n    tag_65:\n        /* \"#utility.yul\":3873:3897   */\n      tag_126\n        /* \"#utility.yul\":3891:3896   */\n      dup2\n        /* \"#utility.yul\":3873:3897   */\n      tag_80\n      jump\t// in\n    tag_126:\n        /* \"#utility.yul\":3866:3871   */\n      dup2\n        /* \"#utility.yul\":3863:3898   */\n      eq\n        /* \"#utility.yul\":3853:3855   */\n      tag_127\n      jumpi\n        /* \"#utility.yul\":3912:3913   */\n      0x00\n        /* \"#utility.yul\":3909:3910   */\n      dup1\n        /* \"#utility.yul\":3902:3914   */\n      revert\n        /* \"#utility.yul\":3853:3855   */\n    tag_127:\n        /* \"#utility.yul\":3843:3922   */\n      pop\n      jump\t// out\n\n    auxdata: 0xa2646970667358221220711ba05adb4c741d674401be0aca44241028d290f9b367436b6ebd41642edd9f64736f6c63430008000033\n}\n",
				"bytecode": {
					"linkReferences": {},
					"object": "608060405234801561001057600080fd5b506106cc806100206000396000f3fe608060405234801561001057600080fd5b50600436106100415760003560e01c8063a94b2d8f14610046578063d0759b5014610076578063de5101af14610096575b600080fd5b610060600480360381019061005b91906103c5565b6100c8565b60405161006d919061041b565b60405180910390f35b61007e6100d4565b60405161008d93929190610436565b60405180910390f35b6100b060048036038101906100ab91906103c5565b6100e7565b6040516100bf9392919061046d565b60405180910390f35b60008142119050919050565b6000806000439250429150339050909192565b60008060008062015180856100fc91906104fa565b905060005b60011561019a57600061016d9050600060046107b28461012191906104a4565b61012b91906105f0565b14801561015f5750600060646107b28461014591906104a4565b61014f91906105f0565b14158061015e57506000610190145b5b1561016a5761016e90505b80831015610178575061019a565b8083610184919061052b565b92508180610191906105a7565b92505050610101565b806107b26101a891906104a4565b94506000604051806101800160405280601f60ff168152602001601c60ff168152602001601f60ff168152602001601e60ff168152602001601f60ff168152602001601e60ff168152602001601f60ff168152602001601f60ff168152602001601e60ff168152602001601f60ff168152602001601e60ff168152602001601f60ff168152509050600060048761023f91906105f0565b1480156102715750600060648761025691906105f0565b141580610270575060006101908761026e91906105f0565b145b5b156102c457601d816001600c81106102b2577f4e487b7100000000000000000000000000000000000000000000000000000000600052603260045260246000fd5b602002019060ff16908160ff16815250505b600194505b600c851161039757806001866102df919061052b565b600c8110610316577f4e487b7100000000000000000000000000000000000000000000000000000000600052603260045260246000fd5b602002015160ff1683101561032a57610397565b80600186610338919061052b565b600c811061036f577f4e487b7100000000000000000000000000000000000000000000000000000000600052603260045260246000fd5b602002015160ff1683610382919061052b565b9250848061038f906105a7565b9550506102c9565b6001836103a491906104a4565b93505050509193909250565b6000813590506103bf8161067f565b92915050565b6000602082840312156103d757600080fd5b60006103e5848285016103b0565b91505092915050565b6103f78161055f565b82525050565b61040681610571565b82525050565b6104158161059d565b82525050565b600060208201905061043060008301846103fd565b92915050565b600060608201905061044b600083018661040c565b610458602083018561040c565b61046560408301846103ee565b949350505050565b6000606082019050610482600083018661040c565b61048f602083018561040c565b61049c604083018461040c565b949350505050565b60006104af8261059d565b91506104ba8361059d565b9250827fffffffffffffffffffffffffffffffffffffffffffffffffffffffffffffffff038211156104ef576104ee610621565b5b828201905092915050565b60006105058261059d565b91506105108361059d565b9250826105205761051f610650565b5b828204905092915050565b60006105368261059d565b91506105418361059d565b92508282101561055457610553610621565b5b828203905092915050565b600061056a8261057d565b9050919050565b60008115159050919050565b600073ffffffffffffffffffffffffffffffffffffffff82169050919050565b6000819050919050565b60006105b28261059d565b91507fffffffffffffffffffffffffffffffffffffffffffffffffffffffffffffffff8214156105e5576105e4610621565b5b600182019050919050565b60006105fb8261059d565b91506106068361059d565b92508261061657610615610650565b5b828206905092915050565b7f4e487b7100000000000000000000000000000000000000000000000000000000600052601160045260246000fd5b7f4e487b7100000000000000000000000000000000000000000000000000000000600052601260045260246000fd5b6106888161059d565b811461069357600080fd5b5056fea2646970667358221220711ba05adb4c741d674401be0aca44241028d290f9b367436b6ebd41642edd9f64736f6c63430008000033",
					"opcodes": "PUSH1 0x80 PUSH1 0x40 MSTORE CALLVALUE DUP1 ISZERO PUSH2 0x10 JUMPI PUSH1 0x0 DUP1 REVERT JUMPDEST POP PUSH2 0x6CC DUP1 PUSH2 0x20 PUSH1 0x0 CODECOPY PUSH1 0x0 RETURN INVALID PUSH1 0x80 PUSH1 0x40 MSTORE CALLVALUE DUP1 ISZERO PUSH2 0x10 JUMPI PUSH1 0x0 DUP1 REVERT JUMPDEST POP PUSH1 0x4 CALLDATASIZE LT PUSH2 0x41 JUMPI PUSH1 0x0 CALLDATALOAD PUSH1 0xE0 SHR DUP1 PUSH4 0xA94B2D8F EQ PUSH2 0x46 JUMPI DUP1 PUSH4 0xD0759B50 EQ PUSH2 0x76 JUMPI DUP1 PUSH4 0xDE5101AF EQ PUSH2 0x96 JUMPI JUMPDEST PUSH1 0x0 DUP1 REVERT JUMPDEST PUSH2 0x60 PUSH1 0x4 DUP1 CALLDATASIZE SUB DUP2 ADD SWAP1 PUSH2 0x5B SWAP2 SWAP1 PUSH2 0x3C5 JUMP JUMPDEST PUSH2 0xC8 JUMP JUMPDEST PUSH1 0x40 MLOAD PUSH2 0x6D SWAP2 SWAP1 PUSH2 0x41B JUMP JUMPDEST PUSH1 0x40 MLOAD DUP1 SWAP2 SUB SWAP1 RETURN JUMPDEST PUSH2 0x7E PUSH2 0xD4 JUMP JUMPDEST PUSH1 0x40 MLOAD PUSH2 0x8D SWAP4 SWAP3 SWAP2 SWAP1 PUSH2 0x436 JUMP JUMPDEST PUSH1 0x40 MLOAD DUP1 SWAP2 SUB SWAP1 RETURN JUMPDEST PUSH2 0xB0 PUSH1 0x4 DUP1 CALLDATASIZE SUB DUP2 ADD SWAP1 PUSH2 0xAB SWAP2 SWAP1 PUSH2 0x3C5 JUMP JUMPDEST PUSH2 0xE7 JUMP JUMPDEST PUSH1 0x40 MLOAD PUSH2 0xBF SWAP4 SWAP3 SWAP2 SWAP1 PUSH2 0x46D JUMP JUMPDEST PUSH1 0x40 MLOAD DUP1 SWAP2 SUB SWAP1 RETURN JUMPDEST PUSH1 0x0 DUP2 TIMESTAMP GT SWAP1 POP SWAP2 SWAP1 POP JUMP JUMPDEST PUSH1 0x0 DUP1 PUSH1 0x0 NUMBER SWAP3 POP TIMESTAMP SWAP2 POP CALLER SWAP1 POP SWAP1 SWAP2 SWAP3 JUMP JUMPDEST PUSH1 0x0 DUP1 PUSH1 0x0 DUP1 PUSH3 0x15180 DUP6 PUSH2 0xFC SWAP2 SWAP1 PUSH2 0x4FA JUMP JUMPDEST SWAP1 POP PUSH1 0x0 JUMPDEST PUSH1 0x1 ISZERO PUSH2 0x19A JUMPI PUSH1 0x0 PUSH2 0x16D SWAP1 POP PUSH1 0x0 PUSH1 0x4 PUSH2 0x7B2 DUP5 PUSH2 0x121 SWAP2 SWAP1 PUSH2 0x4A4 JUMP JUMPDEST PUSH2 0x12B SWAP2 SWAP1 PUSH2 0x5F0 JUMP JUMPDEST EQ DUP1 ISZERO PUSH2 0x15F JUMPI POP PUSH1 0x0 PUSH1 0x64 PUSH2 0x7B2 DUP5 PUSH2 0x145 SWAP2 SWAP1 PUSH2 0x4A4 JUMP JUMPDEST PUSH2 0x14F SWAP2 SWAP1 PUSH2 0x5F0 JUMP JUMPDEST EQ ISZERO DUP1 PUSH2 0x15E JUMPI POP PUSH1 0x0 PUSH2 0x190 EQ JUMPDEST JUMPDEST ISZERO PUSH2 0x16A JUMPI PUSH2 0x16E SWAP1 POP JUMPDEST DUP1 DUP4 LT ISZERO PUSH2 0x178 JUMPI POP PUSH2 0x19A JUMP JUMPDEST DUP1 DUP4 PUSH2 0x184 SWAP2 SWAP1 PUSH2 0x52B JUMP JUMPDEST SWAP3 POP DUP2 DUP1 PUSH2 0x191 SWAP1 PUSH2 0x5A7 JUMP JUMPDEST SWAP3 POP POP POP PUSH2 0x101 JUMP JUMPDEST DUP1 PUSH2 0x7B2 PUSH2 0x1A8 SWAP2 SWAP1 PUSH2 0x4A4 JUMP JUMPDEST SWAP5 POP PUSH1 0x0 PUSH1 0x40 MLOAD DUP1 PUSH2 0x180 ADD PUSH1 0x40 MSTORE DUP1 PUSH1 0x1F PUSH1 0xFF AND DUP2 MSTORE PUSH1 0x20 ADD PUSH1 0x1C PUSH1 0xFF AND DUP2 MSTORE PUSH1 0x20 ADD PUSH1 0x1F PUSH1 0xFF AND DUP2 MSTORE PUSH1 0x20 ADD PUSH1 0x1E PUSH1 0xFF AND DUP2 MSTORE PUSH1 0x20 ADD PUSH1 0x1F PUSH1 0xFF AND DUP2 MSTORE PUSH1 0x20 ADD PUSH1 0x1E PUSH1 0xFF AND DUP2 MSTORE PUSH1 0x20 ADD PUSH1 0x1F PUSH1 0xFF AND DUP2 MSTORE PUSH1 0x20 ADD PUSH1 0x1F PUSH1 0xFF AND DUP2 MSTORE PUSH1 0x20 ADD PUSH1 0x1E PUSH1 0xFF AND DUP2 MSTORE PUSH1 0x20 ADD PUSH1 0x1F PUSH1 0xFF AND DUP2 MSTORE PUSH1 0x20 ADD PUSH1 0x1E PUSH1 0xFF AND DUP2 MSTORE PUSH1 0x20 ADD PUSH1 0x1F PUSH1 0xFF AND DUP2 MSTORE POP SWAP1 POP PUSH1 0x0 PUSH1 0x4 DUP8 PUSH2 0x23F SWAP2 SWAP1 PUSH2 0x5F0 JUMP JUMPDEST EQ DUP1 ISZERO PUSH2 0x271 JUMPI POP PUSH1 0x0 PUSH1 0x64 DUP8 PUSH2 0x256 SWAP2 SWAP1 PUSH2 0x5F0 JUMP JUMPDEST EQ ISZERO DUP1 PUSH2 0x270 JUMPI POP PUSH1 0x0 PUSH2 0x190 DUP8 PUSH2 0x26E SWAP2 SWAP1 PUSH2 0x5F0 JUMP JUMPDEST EQ JUMPDEST JUMPDEST ISZERO PUSH2 0x2C4 JUMPI PUSH1 0x1D DUP2 PUSH1 0x1 PUSH1 0xC DUP2 LT PUSH2 0x2B2 JUMPI PUSH32 0x4E487B7100000000000000000000000000000000000000000000000000000000 PUSH1 0x0 MSTORE PUSH1 0x32 PUSH1 0x4 MSTORE PUSH1 0x24 PUSH1 0x0 REVERT JUMPDEST PUSH1 0x20 MUL ADD SWAP1 PUSH1 0xFF AND SWAP1 DUP2 PUSH1 0xFF AND DUP2 MSTORE POP POP JUMPDEST PUSH1 0x1 SWAP5 POP JUMPDEST PUSH1 0xC DUP6 GT PUSH2 0x397 JUMPI DUP1 PUSH1 0x1 DUP7 PUSH2 0x2DF SWAP2 SWAP1 PUSH2 0x52B JUMP JUMPDEST PUSH1 0xC DUP2 LT PUSH2 0x316 JUMPI PUSH32 0x4E487B7100000000000000000000000000000000000000000000000000000000 PUSH1 0x0 MSTORE PUSH1 0x32 PUSH1 0x4 MSTORE PUSH1 0x24 PUSH1 0x0 REVERT JUMPDEST PUSH1 0x20 MUL ADD MLOAD PUSH1 0xFF AND DUP4 LT ISZERO PUSH2 0x32A JUMPI PUSH2 0x397 JUMP JUMPDEST DUP1 PUSH1 0x1 DUP7 PUSH2 0x338 SWAP2 SWAP1 PUSH2 0x52B JUMP JUMPDEST PUSH1 0xC DUP2 LT PUSH2 0x36F JUMPI PUSH32 0x4E487B7100000000000000000000000000000000000000000000000000000000 PUSH1 0x0 MSTORE PUSH1 0x32 PUSH1 0x4 MSTORE PUSH1 0x24 PUSH1 0x0 REVERT JUMPDEST PUSH1 0x20 MUL ADD MLOAD PUSH1 0xFF AND DUP4 PUSH2 0x382 SWAP2 SWAP1 PUSH2 0x52B JUMP JUMPDEST SWAP3 POP DUP5 DUP1 PUSH2 0x38F SWAP1 PUSH2 0x5A7 JUMP JUMPDEST SWAP6 POP POP PUSH2 0x2C9 JUMP JUMPDEST PUSH1 0x1 DUP4 PUSH2 0x3A4 SWAP2 SWAP1 PUSH2 0x4A4 JUMP JUMPDEST SWAP4 POP POP POP POP SWAP2 SWAP4 SWAP1 SWAP3 POP JUMP JUMPDEST PUSH1 0x0 DUP2 CALLDATALOAD SWAP1 POP PUSH2 0x3BF DUP2 PUSH2 0x67F JUMP JUMPDEST SWAP3 SWAP2 POP POP JUMP JUMPDEST PUSH1 0x0 PUSH1 0x20 DUP3 DUP5 SUB SLT ISZERO PUSH2 0x3D7 JUMPI PUSH1 0x0 DUP1 REVERT JUMPDEST PUSH1 0x0 PUSH2 0x3E5 DUP5 DUP3 DUP6 ADD PUSH2 0x3B0 JUMP JUMPDEST SWAP2 POP POP SWAP3 SWAP2 POP POP JUMP JUMPDEST PUSH2 0x3F7 DUP2 PUSH2 0x55F JUMP JUMPDEST DUP3 MSTORE POP POP JUMP JUMPDEST PUSH2 0x406 DUP2 PUSH2 0x571 JUMP JUMPDEST DUP3 MSTORE POP POP JUMP JUMPDEST PUSH2 0x415 DUP2 PUSH2 0x59D JUMP JUMPDEST DUP3 MSTORE POP POP JUMP JUMPDEST PUSH1 0x0 PUSH1 0x20 DUP3 ADD SWAP1 POP PUSH2 0x430 PUSH1 0x0 DUP4 ADD DUP5 PUSH2 0x3FD JUMP JUMPDEST SWAP3 SWAP2 POP POP JUMP JUMPDEST PUSH1 0x0 PUSH1 0x60 DUP3 ADD SWAP1 POP PUSH2 0x44B PUSH1 0x0 DUP4 ADD DUP7 PUSH2 0x40C JUMP JUMPDEST PUSH2 0x458 PUSH1 0x20 DUP4 ADD DUP6 PUSH2 0x40C JUMP JUMPDEST PUSH2 0x465 PUSH1 0x40 DUP4 ADD DUP5 PUSH2 0x3EE JUMP JUMPDEST SWAP5 SWAP4 POP POP POP POP JUMP JUMPDEST PUSH1 0x0 PUSH1 0x60 DUP3 ADD SWAP1 POP PUSH2 0x482 PUSH1 0x0 DUP4 ADD DUP7 PUSH2 0x40C JUMP JUMPDEST PUSH2 0x48F PUSH1 0x20 DUP4 ADD DUP6 PUSH2 0x40C JUMP JUMPDEST PUSH2 0x49C PUSH1 0x40 DUP4 ADD DUP5 PUSH2 0x40C JUMP JUMPDEST SWAP5 SWAP4 POP POP POP POP JUMP JUMPDEST PUSH1 0x0 PUSH2 0x4AF DUP3 PUSH2 0x59D JUMP JUMPDEST SWAP2 POP PUSH2 0x4BA DUP4 PUSH2 0x59D JUMP JUMPDEST SWAP3 POP DUP3 PUSH32 0xFFFFFFFFFFFFFFFFFFFFFFFFFFFFFFFFFFFFFFFFFFFFFFFFFFFFFFFFFFFFFFFF SUB DUP3 GT ISZERO PUSH2 0x4EF JUMPI PUSH2 0x4EE PUSH2 0x621 JUMP JUMPDEST JUMPDEST DUP3 DUP3 ADD SWAP1 POP SWAP3 SWAP2 POP POP JUMP JUMPDEST PUSH1 0x0 PUSH2 0x505 DUP3 PUSH2 0x59D JUMP JUMPDEST SWAP2 POP PUSH2 0x510 DUP4 PUSH2 0x59D JUMP JUMPDEST SWAP3 POP DUP3 PUSH2 0x520 JUMPI PUSH2 0x51F PUSH2 0x650 JUMP JUMPDEST JUMPDEST DUP3 DUP3 DIV SWAP1 POP SWAP3 SWAP2 POP POP JUMP JUMPDEST PUSH1 0x0 PUSH2 0x536 DUP3 PUSH2 0x59D JUMP JUMPDEST SWAP2 POP PUSH2 0x541 DUP4 PUSH2 0x59D JUMP JUMPDEST SWAP3 POP DUP3 DUP3 LT ISZERO PUSH2 0x554 JUMPI PUSH2 0x553 PUSH2 0x621 JUMP JUMPDEST JUMPDEST DUP3 DUP3 SUB SWAP1 POP SWAP3 SWAP2 POP POP JUMP JUMPDEST PUSH1 0x0 PUSH2 0x56A DUP3 PUSH2 0x57D JUMP JUMPDEST SWAP1 POP SWAP2 SWAP1 POP JUMP JUMPDEST PUSH1 0x0 DUP2 ISZERO ISZERO SWAP1 POP SWAP2 SWAP1 POP JUMP JUMPDEST PUSH1 0x0 PUSH20 0xFFFFFFFFFFFFFFFFFFFFFFFFFFFFFFFFFFFFFFFF DUP3 AND SWAP1 POP SWAP2 SWAP1 POP JUMP JUMPDEST PUSH1 0x0 DUP2 SWAP1 POP SWAP2 SWAP1 POP JUMP JUMPDEST PUSH1 0x0 PUSH2 0x5B2 DUP3 PUSH2 0x59D JUMP JUMPDEST SWAP2 POP PUSH32 0xFFFFFFFFFFFFFFFFFFFFFFFFFFFFFFFFFFFFFFFFFFFFFFFFFFFFFFFFFFFFFFFF DUP3 EQ ISZERO PUSH2 0x5E5 JUMPI PUSH2 0x5E4 PUSH2 0x621 JUMP JUMPDEST JUMPDEST PUSH1 0x1 DUP3 ADD SWAP1 POP SWAP2 SWAP1 POP JUMP JUMPDEST PUSH1 0x0 PUSH2 0x5FB DUP3 PUSH2 0x59D JUMP JUMPDEST SWAP2 POP PUSH2 0x606 DUP4 PUSH2 0x59D JUMP JUMPDEST SWAP3 POP DUP3 PUSH2 0x616 JUMPI PUSH2 0x615 PUSH2 0x650 JUMP JUMPDEST JUMPDEST DUP3 DUP3 MOD SWAP1 POP SWAP3 SWAP2 POP POP JUMP JUMPDEST PUSH32 0x4E487B7100000000000000000000000000000000000000000000000000000000 PUSH1 0x0 MSTORE PUSH1 0x11 PUSH1 0x4 MSTORE PUSH1 0x24 PUSH1 0x0 REVERT JUMPDEST PUSH32 0x4E487B7100000000000000000000000000000000000000000000000000000000 PUSH1 0x0 MSTORE PUSH1 0x12 PUSH1 0x4 MSTORE PUSH1 0x24 PUSH1 0x0 REVERT JUMPDEST PUSH2 0x688 DUP2 PUSH2 0x59D JUMP JUMPDEST DUP2 EQ PUSH2 0x693 JUMPI PUSH1 0x0 DUP1 REVERT JUMPDEST POP JUMP INVALID LOG2 PUSH5 0x6970667358 0x22 SLT KECCAK256 PUSH18 0x1BA05ADB4C741D674401BE0ACA44241028D2 SWAP1 0xF9 0xB3 PUSH8 0x436B6EBD41642EDD SWAP16 PUSH5 0x736F6C6343 STOP ADDMOD STOP STOP CALLER "
				},
				"gasEstimates": {
					"creation": {
						"codeDepositCost": "348000",
						"executionCost": "386",
						"totalCost": "348386"
					},
					"external": {
						"getGlobal()": "infinite",
						"isAfterDeadline(uint256)": "591",
						"timestampToDate(uint256)": "infinite"
					}
				},
				"methodIdentifiers": {
					"getGlobal()": "d0759b50",
					"isAfterDeadline(uint256)": "a94b2d8f",
					"timestampToDate(uint256)": "de5101af"
				}
			},
			"storageLayout": {
				"storage": [],
				"types": null
			},
			"userdoc": {
				"kind": "user",
				"methods": {},
				"version": 1
			}
		}
	}
}