{
	"data": {
		"bytecode": {
			"linkReferences": {},
			"object": "608060405234801561001057600080fd5b506106cc806100206000396000f3fe608060405234801561001057600080fd5b50600436106100415760003560e01c8063a94b2d8f14610046578063d0759b5014610076578063de5101af14610096575b600080fd5b610060600480360381019061005b91906103c5565b6100c8565b60405161006d919061041b565b60405180910390f35b61007e6100d4565b60405161008d93929190610436565b60405180910390f35b6100b060048036038101906100ab91906103c5565b6100e7565b6040516100bf9392919061046d565b60405180910390f35b60008142119050919050565b6000806000439250429150339050909192565b60008060008062015180856100fc91906104fa565b905060005b60011561019a57600061016d9050600060046107b28461012191906104a4565b61012b91906105f0565b14801561015f5750600060646107b28461014591906104a4565b61014f91906105f0565b14158061015e57506000610190145b5b1561016a5761016e90505b80831015610178575061019a565b8083610184919061052b565b92508180610191906105a7565b92505050610101565b806107b26101a891906104a4565b94506000604051806101800160405280601f60ff168152602001601c60ff168152602001601f60ff168152602001601e60ff168152602001601f60ff168152602001601e60ff168152602001601f60ff168152602001601f60ff168152602001601e60ff168152602001601f60ff168152602001601e60ff168152602001601f60ff168152509050600060048761023f91906105f0565b1480156102715750600060648761025691906105f0565b141580610270575060006101908761026e91906105f0565b145b5b156102c457601d816001600c81106102b2577f4e487b7100000000000000000000000000000000000000000000000000000000600052603260045260246000fd5b602002019060ff16908160ff16815250505b600194505b600c851161039757806001866102df919061052b565b600c8110610316577f4e487b7100000000000000000000000000000000000000000000000000000000600052603260045260246000fd5b602002015160ff1683101561032a57610397565b80600186610338919061052b565b600c811061036f577f4e487b7100000000000000000000000000000000000000000000000000000000600052603260045260246000fd5b602002015160ff1683610382919061052b565b9250848061038f906105a7565b9550506102c9565b6001836103a491906104a4565b93505050509193909250565b6000813590506103bf8161067f565b92915050565b6000602082840312156103d757600080fd5b60006103e5848285016103b0565b91505092915050565b6103f78161055f565b82525050565b61040681610571565b82525050565b6104158161059d565b82525050565b600060208201905061043060008301846103fd565b92915050565b600060608201905061044b600083018661040c565b610458602083018561040c565b61046560408301846103ee565b949350505050565b6000606082019050610482600083018661040c565b61048f602083018561040c565b61049c604083018461040c565b949350505050565b60006104af8261059d565b91506104ba8361059d565b9250827fffffffffffffffffffffffffffffffffffffffffffffffffffffffffffffffff038211156104ef576104ee610621565b5b828201905092915050565b60006105058261059d565b91506105108361059d565b9250826105205761051f610650565b5b828204905092915050565b60006105368261059d565b91506105418361059d565b92508282101561055457610553610621565b5b828203905092915050565b600061056a8261057d565b9050919050565b60008115159050919050565b600073ffffffffffffffffffffffffffffffffffffffff82169050919050565b6000819050919050565b60006105b28261059d565b91507fffffffffffffffffffffffffffffffffffffffffffffffffffffffffffffffff8214156105e5576105e4610621565b5b600182019050919050565b60006105fb8261059d565b91506106068361059d565b92508261061657610615610650565b5b828206905092915050565b7f4e487b7100000000000000000000000000000000000000000000000000000000600052601160045260246000fd5b7f4e487b7100000000000000000000000000000000000000000000000000000000600052601260045260246000fd5b6106888161059d565b811461069357600080fd5b5056fea2646970667358221220711ba05adb4c741d674401be0aca44241028d290f9b367436b6ebd41642edd9f64736f6c63430008000033",
			"opcodes": "PUSH1 0x80 PUSH1 0x40 MSTORE CALLVALUE DUP1 ISZERO PUSH2 0x10 JUMPI PUSH1 0x0 DUP1 REVERT JUMPDEST POP PUSH2 0x6CC DUP1 PUSH2 0x20 PUSH1 0x0 CODECOPY PUSH1 0x0 RETURN INVALID PUSH1 0x80 PUSH1 0x40 MSTORE CALLVALUE DUP1 ISZERO PUSH2 0x10 JUMPI PUSH1 0x0 DUP1 REVERT JUMPDEST POP PUSH1 0x4 CALLDATASIZE LT PUSH2 0x41 JUMPI PUSH1 0x0 CALLDATALOAD PUSH1 0xE0 SHR DUP1 PUSH4 0xA94B2D8F EQ PUSH2 0x46 JUMPI DUP1 PUSH4 0xD0759B50 EQ PUSH2 0x76 JUMPI DUP1 PUSH4 0xDE5101AF EQ PUSH2 0x96 JUMPI JUMPDEST PUSH1 0x0 DUP1 REVERT JUMPDEST PUSH2 0x60 PUSH1 0x4 DUP1 CALLDATASIZE SUB DUP2 ADD SWAP1 PUSH2 0x5B SWAP2 SWAP1 PUSH2 0x3C5 JUMP JUMPDEST PUSH2 0xC8 JUMP JUMPDEST PUSH1 0x40 MLOAD PUSH2 0x6D SWAP2 SWAP1 PUSH2 0x41B JUMP JUMPDEST PUSH1 0x40 MLOAD DUP1 SWAP2 SUB SWAP1 RETURN JUMPDEST PUSH2 0x7E PUSH2 0xD4 JUMP JUMPDEST PUSH1 0x40 MLOAD PUSH2 0x8D SWAP4 SWAP3 SWAP2 SWAP1 PUSH2 0x436 JUMP JUMPDEST PUSH1 0x40 MLOAD DUP1 SWAP2 SUB SWAP1 RETURN JUMPDEST PUSH2 0xB0 PUSH1 0x4 DUP1 CALLDATASIZE SUB DUP2 ADD SWAP1 PUSH2 0xAB SWAP2 SWAP1 PUSH2 0x3C5 JUMP JUMPDEST PUSH2 0xE7 JUMP JUMPDEST PUSH1 0x40 MLOAD PUSH2 0xBF SWAP4 SWAP3 SWAP2 SWAP1 PUSH2 0x46D JUMP JUMPDEST PUSH1 0x40 MLOAD DUP1 SWAP2 SUB SWAP1 RETURN JUMPDEST PUSH1 0x0 DUP2 TIMESTAMP GT SWAP1 POP SWAP2 SWAP1 POP JUMP JUMPDEST PUSH1 0x0 DUP1 PUSH1 0x0 NUMBER SWAP3 POP TIMESTAMP SWAP2 POP CALLER SWAP1 POP SWAP1 SWAP2 SWAP3 JUMP JUMPDEST PUSH1 0x0 DUP1 PUSH1 0x0 DUP1 PUSH3 0x15180 DUP6 PUSH2 0xFC SWAP2 SWAP1 PUSH2 0x4FA JUMP JUMPDEST SWAP1 POP PUSH1 0x0 JUMPDEST PUSH1 0x1 ISZERO PUSH2 0x19A JUMPI PUSH1 0x0 PUSH2 0x16D SWAP1 POP PUSH1 0x0 PUSH1 0x4 PUSH2 0x7B2 DUP5 PUSH2 0x121 SWAP2 SWAP1 PUSH2 0x4A4 JUMP JUMPDEST PUSH2 0x12B SWAP2 SWAP1 PUSH2 0x5F0 JUMP JUMPDEST EQ DUP1 ISZERO PUSH2 0x15F JUMPI POP PUSH1 0x0 PUSH1 0x64 PUSH2 0x7B2 DUP5 PUSH2 0x145 SWAP2 SWAP1 PUSH2 0x4A4 JUMP JUMPDEST PUSH2 0x14F SWAP2 SWAP1 PUSH2 0x5F0 JUMP JUMPDEST EQ ISZERO DUP1 PUSH2 0x15E JUMPI POP PUSH1 0x0 PUSH2 0x190 EQ JUMPDEST JUMPDEST ISZERO PUSH2 0x16A JUMPI PUSH2 0x16E SWAP1 POP JUMPDEST DUP1 DUP4 LT ISZERO PUSH2 0x178 JUMPI POP PUSH2 0x19A JUMP JUMPDEST DUP1 DUP4 PUSH2 0x184 SWAP2 SWAP1 PUSH2 0x52B JUMP JUMPDEST SWAP3 POP DUP2 DUP1 PUSH2 0x191 SWAP1 PUSH2 0x5A7 JUMP JUMPDEST SWAP3 POP POP POP PUSH2 0x101 JUMP JUMPDEST DUP1 PUSH2 0x7B2 PUSH2 0x1A8 SWAP2 SWAP1 PUSH2 0x4A4 JUMP JUMPDEST SWAP5 POP PUSH1 0x0 PUSH1 0x40 MLOAD DUP1 PUSH2 0x180 ADD PUSH1 0x40 MSTORE DUP1 PUSH1 0x1F PUSH1 0xFF AND DUP2 MSTORE PUSH1 0x20 ADD PUSH1 0x1C PUSH1 0xFF AND DUP2 MSTORE PUSH1 0x20 ADD PUSH1 0x1F PUSH1 0xFF AND DUP2 MSTORE PUSH1 0x20 ADD PUSH1 0x1E PUSH1 0xFF AND DUP2 MSTORE PUSH1 0x20 ADD PUSH1 0x1F PUSH1 0xFF AND DUP2 MSTORE PUSH1 0x20 ADD PUSH1 0x1E PUSH1 0xFF AND DUP2 MSTORE PUSH1 0x20 ADD PUSH1 0x1F PUSH1 0xFF AND DUP2 MSTORE PUSH1 0x20 ADD PUSH1 0x1F PUSH1 0xFF AND DUP2 MSTORE PUSH1 0x20 ADD PUSH1 0x1E PUSH1 0xFF AND DUP2 MSTORE PUSH1 0x20 ADD PUSH1 0x1F PUSH1 0xFF AND DUP2 MSTORE PUSH1 0x20 ADD PUSH1 0x1E PUSH1 0xFF AND DUP2 MSTORE PUSH1 0x20 ADD PUSH1 0x1F PUSH1 0xFF AND DUP2 MSTORE POP SWAP1 POP PUSH1 0x0 PUSH1 0x4 DUP8 PUSH2 0x23F SWAP2 SWAP1 PUSH2 0x5F0 JUMP JUMPDEST EQ DUP1 ISZERO PUSH2 0x271 JUMPI POP PUSH1 0x0 PUSH1 0x64 DUP8 PUSH2 0x256 SWAP2 SWAP1 PUSH2 0x5F0 JUMP JUMPDEST EQ ISZERO DUP1 PUSH2 0x270 JUMPI POP PUSH1 0x0 PUSH2 0x190 DUP8 PUSH2 0x26E SWAP2 SWAP1 PUSH2 0x5F0 JUMP JUMPDEST EQ JUMPDEST JUMPDEST ISZERO PUSH2 0x2C4 JUMPI PUSH1 0x1D DUP2 PUSH1 0x1 PUSH1 0xC DUP2 LT PUSH2 0x2B2 JUMPI PUSH32 0x4E487B7100000000000000000000000000000000000000000000000000000000 PUSH1 0x0 MSTORE PUSH1 0x32 PUSH1 0x4 MSTORE PUSH1 0x24 PUSH1 0x0 REVERT JUMPDEST PUSH1 0x20 MUL ADD SWAP1 PUSH1 0xFF AND SWAP1 DUP2 PUSH1 0xFF AND DUP2 MSTORE POP POP JUMPDEST PUSH1 0x1 SWAP5 POP JUMPDEST PUSH1 0xC DUP6 GT PUSH2 0x397 JUMPI DUP1 PUSH1 0x1 DUP7 PUSH2 0x2DF SWAP2 SWAP1 PUSH2 0x52B JUMP JUMPDEST PUSH1 0xC DUP2 LT PUSH2 0x316 JUMPI PUSH32 0x4E487B7100000000000000000000000000000000000000000000000000000000 PUSH1 0x0 MSTORE PUSH1 0x32 PUSH1 0x4 MSTORE PUSH1 0x24 PUSH1 0x0 REVERT JUMPDEST PUSH1 0x20 MUL ADD MLOAD PUSH1 0xFF AND DUP4 LT ISZERO PUSH2 0x32A JUMPI PUSH2 0x397 JUMP JUMPDEST DUP1 PUSH1 0x1 DUP7 PUSH2 0x338 SWAP2 SWAP1 PUSH2 0x52B JUMP JUMPDEST PUSH1 0xC DUP2 LT PUSH2 0x36F JUMPI PUSH32 0x4E487B7100000000000000000000000000000000000000000000000000000000 PUSH1 0x0 MSTORE PUSH1 0x32 PUSH1 0x4 MSTORE PUSH1 0x24 PUSH1 0x0 REVERT JUMPDEST PUSH1 0x20 MUL ADD MLOAD PUSH1 0xFF AND DUP4 PUSH2 0x382 SWAP2 SWAP1 PUSH2 0x52B JUMP JUMPDEST SWAP3 POP DUP5 DUP1 PUSH2 0x38F SWAP1 PUSH2 0x5A7 JUMP JUMPDEST SWAP6 POP POP PUSH2 0x2C9 JUMP JUMPDEST PUSH1 0x1 DUP4 PUSH2 0x3A4 SWAP2 SWAP1 PUSH2 0x4A4 JUMP JUMPDEST SWAP4 POP POP POP POP SWAP2 SWAP4 SWAP1 SWAP3 POP JUMP JUMPDEST PUSH1 0x0 DUP2 CALLDATALOAD SWAP1 POP PUSH2 0x3BF DUP2 PUSH2 0x67F JUMP JUMPDEST SWAP3 SWAP2 POP POP JUMP JUMPDEST PUSH1 0x0 PUSH1 0x20 DUP3 DUP5 SUB SLT ISZERO PUSH2 0x3D7 JUMPI PUSH1 0x0 DUP1 REVERT JUMPDEST PUSH1 0x0 PUSH2 0x3E5 DUP5 DUP3 DUP6 ADD PUSH2 0x3B0 JUMP JUMPDEST SWAP2 POP POP SWAP3 SWAP2 POP POP JUMP JUMPDEST PUSH2 0x3F7 DUP2 PUSH2 0x55F JUMP JUMPDEST DUP3 MSTORE POP POP JUMP JUMPDEST PUSH2 0x406 DUP2 PUSH2 0x571 JUMP JUMPDEST DUP3 MSTORE POP POP JUMP JUMPDEST PUSH2 0x415 DUP2 PUSH2 0x59D JUMP JUMPDEST DUP3 MSTORE POP POP JUMP JUMPDEST PUSH1 0x0 PUSH1 0x20 DUP3 ADD SWAP1 POP PUSH2 0x430 PUSH1 0x0 DUP4 ADD DUP5 PUSH2 0x3FD JUMP JUMPDEST SWAP3 SWAP2 POP POP JUMP JUMPDEST PUSH1 0x0 PUSH1 0x60 DUP3 ADD SWAP1 POP PUSH2 0x44B PUSH1 0x0 DUP4 ADD DUP7 PUSH2 0x40C JUMP JUMPDEST PUSH2 0x458 PUSH1 0x20 DUP4 ADD DUP6 PUSH2 0x40C JUMP JUMPDEST PUSH2 0x465 PUSH1 0x40 DUP4 ADD DUP5 PUSH2 0x3EE JUMP JUMPDEST SWAP5 SWAP4 POP POP POP POP JUMP JUMPDEST PUSH1 0x0 PUSH1 0x60 DUP3 ADD SWAP1 POP PUSH2 0x482 PUSH1 0x0 DUP4 ADD DUP7 PUSH2 0x40C JUMP JUMPDEST PUSH2 0x48F PUSH1 0x20 DUP4 ADD DUP6 PUSH2 0x40C JUMP JUMPDEST PUSH2 0x49C PUSH1 0x40 DUP4 ADD DUP5 PUSH2 0x40C JUMP JUMPDEST SWAP5 SWAP4 POP POP POP POP JUMP JUMPDEST PUSH1 0x0 PUSH2 0x4AF DUP3 PUSH2 0x59D JUMP JUMPDEST SWAP2 POP PUSH2 0x4BA DUP4 PUSH2 0x59D JUMP JUMPDEST SWAP3 POP DUP3 PUSH32 0xFFFFFFFFFFFFFFFFFFFFFFFFFFFFFFFFFFFFFFFFFFFFFFFFFFFFFFFFFFFFFFFF SUB DUP3 GT ISZERO PUSH2 0x4EF JUMPI PUSH2 0x4EE PUSH2 0x621 JUMP JUMPDEST JUMPDEST DUP3 DUP3 ADD SWAP1 POP SWAP3 SWAP2 POP POP JUMP JUMPDEST PUSH1 0x0 PUSH2 0x505 DUP3 PUSH2 0x59D JUMP JUMPDEST SWAP2 POP PUSH2 0x510 DUP4 PUSH2 0x59D JUMP JUMPDEST SWAP3 POP DUP3 PUSH2 0x520 JUMPI PUSH2 0x51F PUSH2 0x650 JUMP JUMPDEST JUMPDEST DUP3 DUP3 DIV SWAP1 POP SWAP3 SWAP2 POP POP JUMP JUMPDEST PUSH1 0x0 PUSH2 0x536 DUP3 PUSH2 0x59D JUMP JUMPDEST SWAP2 POP PUSH2 0x541 DUP4 PUSH2 0x59D JUMP JUMPDEST SWAP3 POP DUP3 DUP3 LT ISZERO PUSH2 0x554 JUMPI PUSH2 0x553 PUSH2 0x621 JUMP JUMPDEST JUMPDEST DUP3 DUP3 SUB SWAP1 POP SWAP3 SWAP2 POP POP JUMP JUMPDEST PUSH1 0x0 PUSH2 0x56A DUP3 PUSH2 0x57D JUMP JUMPDEST SWAP1 POP SWAP2 SWAP1 POP JUMP JUMPDEST PUSH1 0x0 DUP2 ISZERO ISZERO SWAP1 POP SWAP2 SWAP1 POP JUMP JUMPDEST PUSH1 0x0 PUSH20 0xFFFFFFFFFFFFFFFFFFFFFFFFFFFFFFFFFFFFFFFF DUP3 AND SWAP1 POP SWAP2 SWAP1 POP JUMP JUMPDEST PUSH1 0x0 DUP2 SWAP1 POP SWAP2 SWAP1 POP JUMP JUMPDEST PUSH1 0x0 PUSH2 0x5B2 DUP3 PUSH2 0x59D JUMP JUMPDEST SWAP2 POP PUSH32 0xFFFFFFFFFFFFFFFFFFFFFFFFFFFFFFFFFFFFFFFFFFFFFFFFFFFFFFFFFFFFFFFF DUP3 EQ ISZERO PUSH2 0x5E5 JUMPI PUSH2 0x5E4 PUSH2 0x621 JUMP JUMPDEST JUMPDEST PUSH1 0x1 DUP3 ADD SWAP1 POP SWAP2 SWAP1 POP JUMP JUMPDEST PUSH1 0x0 PUSH2 0x5FB DUP3 PUSH2 0x59D JUMP JUMPDEST SWAP2 POP PUSH2 0x606 DUP4 PUSH2 0x59D JUMP JUMPDEST SWAP3 POP DUP3 PUSH2 0x616 JUMPI PUSH2 0x615 PUSH2 0x650 JUMP JUMPDEST JUMPDEST DUP3 DUP3 MOD SWAP1 POP SWAP3 SWAP2 POP POP JUMP JUMPDEST PUSH32 0x4E487B7100000000000000000000000000000000000000000000000000000000 PUSH1 0x0 MSTORE PUSH1 0x11 PUSH1 0x4 MSTORE PUSH1 0x24 PUSH1 0x0 REVERT JUMPDEST PUSH32 0x4E487B7100000000000000000000000000000000000000000000000000000000 PUSH1 0x0 MSTORE PUSH1 0x12 PUSH1 0x4 MSTORE PUSH1 0x24 PUSH1 0x0 REVERT JUMPDEST PUSH2 0x688 DUP2 PUSH2 0x59D JUMP JUMPDEST DUP2 EQ PUSH2 0x693 JUMPI PUSH1 0x0 DUP1 REVERT JUMPDEST POP JUMP INVALID LOG2 PUSH5 0x6970667358 0x22 SLT KECCAK256 PUSH18 0x1BA05ADB4C741D674401BE0ACA44241028D2 SWAP1 0xF9 0xB3 PUSH8 0x436B6EBD41642EDD SWAP16 PUSH5 0x736F6C6343 STOP ADDMOD STOP STOP CALLER "
		},
		"gasEstimates": {
			"creation": {
				"codeDepositCost": "348000",
				"executionCost": "386",
				"totalCost": "348386"
			},
			"external": {
				"getGlobal()": "infinite",
				"isAfterDeadline(uint256)": "591",
				"timestampToDate(uint256)": "infinite"
			}
		},
		"methodIdentifiers": {
			"getGlobal()": "d0759b50",
			"isAfterDeadline(uint256)": "a94b2d8f",
			"timestampToDate(uint256)": "de5101af"
		}
	},
	"abi": [
		{
			"inputs": [],
			"name": "getGlobal",
			"outputs": [
				{
					"internalType": "uint256",
					"name": "blockNumber",
					"type": "uint256"
				},
				{
					"internalType": "uint256",
					"name": "blockTimestamp",
					"type": "uint256"
				},
				{
					"internalType": "address",
					"name": "callerAddress",
					"type": "address"
				}
			],
			"stateMutability": "view",
			"type": "function"
		},
		{
			"inputs": [
				{
					"internalType": "uint256",
					"name": "deadline",
					"type": "uint256"
				}
			],
			"name": "isAfterDeadline",
			"outputs": [
				{
					"internalType": "bool",
					"name": "",
					"type": "bool"
				}
			],
			"stateMutability": "view",
			"type": "function"
		},
		{
			"inputs": [
				{
					"internalType": "uint256",
					"name": "timestamp",
					"type": "uint256"
				}
			],
			"name": "timestampToDate",
			"outputs": [
				{
					"internalType": "uint256",
					"name": "year",
					"type": "uint256"
				},
				{
					"internalType": "uint256",
					"name": "month",
					"type": "uint256"
				},
				{
					"internalType": "uint256",
					"name": "day",
					"type": "uint256"
				}
			],
			"stateMutability": "pure",
			"type": "function"
		}
	]
}