{
	"data": {
		"bytecode": {
			"linkReferences": {},
			"object": "608060405234801561001057600080fd5b506102d7806100206000396000f3fe608060405234801561001057600080fd5b50600436106100365760003560e01c806382c615001461003b578063c2d85baf1461006b575b600080fd5b61005560048036038101906100509190610130565b61009b565b60405161006291906101a2565b60405180910390f35b610085600480360381019061008091906100f4565b6100c9565b60405161009291906101a2565b60405180910390f35b6000818385876100ab91906101bd565b6100b591906101bd565b6100bf91906101bd565b9050949350505050565b600081836100d791906101bd565b905092915050565b6000813590506100ee8161028a565b92915050565b6000806040838503121561010757600080fd5b6000610115858286016100df565b9250506020610126858286016100df565b9150509250929050565b6000806000806080858703121561014657600080fd5b6000610154878288016100df565b9450506020610165878288016100df565b9350506040610176878288016100df565b9250506060610187878288016100df565b91505092959194509250565b61019c81610251565b82525050565b60006020820190506101b76000830184610193565b92915050565b60006101c882610251565b91506101d383610251565b9250817f7fffffffffffffffffffffffffffffffffffffffffffffffffffffffffffffff0383136000831215161561020e5761020d61025b565b5b817f80000000000000000000000000000000000000000000000000000000000000000383126000831216156102465761024561025b565b5b828201905092915050565b6000819050919050565b7f4e487b7100000000000000000000000000000000000000000000000000000000600052601160045260246000fd5b61029381610251565b811461029e57600080fd5b5056fea2646970667358221220234408233cadd7341304391ed53a8fba987ee080b6e8a7a8cc984384707a7a6264736f6c63430008000033",
			"opcodes": "PUSH1 0x80 PUSH1 0x40 MSTORE CALLVALUE DUP1 ISZERO PUSH2 0x10 JUMPI PUSH1 0x0 DUP1 REVERT JUMPDEST POP PUSH2 0x2D7 DUP1 PUSH2 0x20 PUSH1 0x0 CODECOPY PUSH1 0x0 RETURN INVALID PUSH1 0x80 PUSH1 0x40 MSTORE CALLVALUE DUP1 ISZERO PUSH2 0x10 JUMPI PUSH1 0x0 DUP1 REVERT JUMPDEST POP PUSH1 0x4 CALLDATASIZE LT PUSH2 0x36 JUMPI PUSH1 0x0 CALLDATALOAD PUSH1 0xE0 SHR DUP1 PUSH4 0x82C61500 EQ PUSH2 0x3B JUMPI DUP1 PUSH4 0xC2D85BAF EQ PUSH2 0x6B JUMPI JUMPDEST PUSH1 0x0 DUP1 REVERT JUMPDEST PUSH2 0x55 PUSH1 0x4 DUP1 CALLDATASIZE SUB DUP2 ADD SWAP1 PUSH2 0x50 SWAP2 SWAP1 PUSH2 0x130 JUMP JUMPDEST PUSH2 0x9B JUMP JUMPDEST PUSH1 0x40 MLOAD PUSH2 0x62 SWAP2 SWAP1 PUSH2 0x1A2 JUMP JUMPDEST PUSH1 0x40 MLOAD DUP1 SWAP2 SUB SWAP1 RETURN JUMPDEST PUSH2 0x85 PUSH1 0x4 DUP1 CALLDATASIZE SUB DUP2 ADD SWAP1 PUSH2 0x80 SWAP2 SWAP1 PUSH2 0xF4 JUMP JUMPDEST PUSH2 0xC9 JUMP JUMPDEST PUSH1 0x40 MLOAD PUSH2 0x92 SWAP2 SWAP1 PUSH2 0x1A2 JUMP JUMPDEST PUSH1 0x40 MLOAD DUP1 SWAP2 SUB SWAP1 RETURN JUMPDEST PUSH1 0x0 DUP2 DUP4 DUP6 DUP8 PUSH2 0xAB SWAP2 SWAP1 PUSH2 0x1BD JUMP JUMPDEST PUSH2 0xB5 SWAP2 SWAP1 PUSH2 0x1BD JUMP JUMPDEST PUSH2 0xBF SWAP2 SWAP1 PUSH2 0x1BD JUMP JUMPDEST SWAP1 POP SWAP5 SWAP4 POP POP POP POP JUMP JUMPDEST PUSH1 0x0 DUP2 DUP4 PUSH2 0xD7 SWAP2 SWAP1 PUSH2 0x1BD JUMP JUMPDEST SWAP1 POP SWAP3 SWAP2 POP POP JUMP JUMPDEST PUSH1 0x0 DUP2 CALLDATALOAD SWAP1 POP PUSH2 0xEE DUP2 PUSH2 0x28A JUMP JUMPDEST SWAP3 SWAP2 POP POP JUMP JUMPDEST PUSH1 0x0 DUP1 PUSH1 0x40 DUP4 DUP6 SUB SLT ISZERO PUSH2 0x107 JUMPI PUSH1 0x0 DUP1 REVERT JUMPDEST PUSH1 0x0 PUSH2 0x115 DUP6 DUP3 DUP7 ADD PUSH2 0xDF JUMP JUMPDEST SWAP3 POP POP PUSH1 0x20 PUSH2 0x126 DUP6 DUP3 DUP7 ADD PUSH2 0xDF JUMP JUMPDEST SWAP2 POP POP SWAP3 POP SWAP3 SWAP1 POP JUMP JUMPDEST PUSH1 0x0 DUP1 PUSH1 0x0 DUP1 PUSH1 0x80 DUP6 DUP8 SUB SLT ISZERO PUSH2 0x146 JUMPI PUSH1 0x0 DUP1 REVERT JUMPDEST PUSH1 0x0 PUSH2 0x154 DUP8 DUP3 DUP9 ADD PUSH2 0xDF JUMP JUMPDEST SWAP5 POP POP PUSH1 0x20 PUSH2 0x165 DUP8 DUP3 DUP9 ADD PUSH2 0xDF JUMP JUMPDEST SWAP4 POP POP PUSH1 0x40 PUSH2 0x176 DUP8 DUP3 DUP9 ADD PUSH2 0xDF JUMP JUMPDEST SWAP3 POP POP PUSH1 0x60 PUSH2 0x187 DUP8 DUP3 DUP9 ADD PUSH2 0xDF JUMP JUMPDEST SWAP2 POP POP SWAP3 SWAP6 SWAP2 SWAP5 POP SWAP3 POP JUMP JUMPDEST PUSH2 0x19C DUP2 PUSH2 0x251 JUMP JUMPDEST DUP3 MSTORE POP POP JUMP JUMPDEST PUSH1 0x0 PUSH1 0x20 DUP3 ADD SWAP1 POP PUSH2 0x1B7 PUSH1 0x0 DUP4 ADD DUP5 PUSH2 0x193 JUMP JUMPDEST SWAP3 SWAP2 POP POP JUMP JUMPDEST PUSH1 0x0 PUSH2 0x1C8 DUP3 PUSH2 0x251 JUMP JUMPDEST SWAP2 POP PUSH2 0x1D3 DUP4 PUSH2 0x251 JUMP JUMPDEST SWAP3 POP DUP2 PUSH32 0x7FFFFFFFFFFFFFFFFFFFFFFFFFFFFFFFFFFFFFFFFFFFFFFFFFFFFFFFFFFFFFFF SUB DUP4 SGT PUSH1 0x0 DUP4 SLT ISZERO AND ISZERO PUSH2 0x20E JUMPI PUSH2 0x20D PUSH2 0x25B JUMP JUMPDEST JUMPDEST DUP2 PUSH32 0x8000000000000000000000000000000000000000000000000000000000000000 SUB DUP4 SLT PUSH1 0x0 DUP4 SLT AND ISZERO PUSH2 0x246 JUMPI PUSH2 0x245 PUSH2 0x25B JUMP JUMPDEST JUMPDEST DUP3 DUP3 ADD SWAP1 POP SWAP3 SWAP2 POP POP JUMP JUMPDEST PUSH1 0x0 DUP2 SWAP1 POP SWAP2 SWAP1 POP JUMP JUMPDEST PUSH32 0x4E487B7100000000000000000000000000000000000000000000000000000000 PUSH1 0x0 MSTORE PUSH1 0x11 PUSH1 0x4 MSTORE PUSH1 0x24 PUSH1 0x0 REVERT JUMPDEST PUSH2 0x293 DUP2 PUSH2 0x251 JUMP JUMPDEST DUP2 EQ PUSH2 0x29E JUMPI PUSH1 0x0 DUP1 REVERT JUMPDEST POP JUMP INVALID LOG2 PUSH5 0x6970667358 0x22 SLT KECCAK256 0x23 DIFFICULTY ADDMOD 0x23 EXTCODECOPY 0xAD 0xD7 CALLVALUE SGT DIV CODECOPY 0x1E 0xD5 GASPRICE DUP16 0xBA SWAP9 PUSH31 0xE080B6E8A7A8CC984384707A7A6264736F6C63430008000033000000000000 "
		},
		"gasEstimates": {
			"creation": {
				"codeDepositCost": "145400",
				"executionCost": "190",
				"totalCost": "145590"
			},
			"external": {
				"addition(int256,int256)": "infinite",
				"addition(int256,int256,int256,int256)": "infinite"
			}
		},
		"methodIdentifiers": {
			"addition(int256,int256)": "c2d85baf",
			"addition(int256,int256,int256,int256)": "82c61500"
		}
	},
	"abi": [
		{
			"inputs": [
				{
					"internalType": "int256",
					"name": "c",
					"type": "int256"
				},
				{
					"internalType": "int256",
					"name": "d",
					"type": "int256"
				},
				{
					"internalType": "int256",
					"name": "e",
					"type": "int256"
				},
				{
					"internalType": "int256",
					"name": "f",
					"type": "int256"
				}
			],
			"name": "addition",
			"outputs": [
				{
					"internalType": "int256",
					"name": "",
					"type": "int256"
				}
			],
			"stateMutability": "pure",
			"type": "function"
		},
		{
			"inputs": [
				{
					"internalType": "int256",
					"name": "a",
					"type": "int256"
				},
				{
					"internalType": "int256",
					"name": "b",
					"type": "int256"
				}
			],
			"name": "addition",
			"outputs": [
				{
					"internalType": "int256",
					"name": "",
					"type": "int256"
				}
			],
			"stateMutability": "pure",
			"type": "function"
		}
	]
}